:020000040000FA
:1000000014EF00F0FFFFFFFFDDEF2CF0FFFFFFFF1D
:10001000FFFFFFFFFFFFFFFFD8CF5AF0E8CF5BF0F5
:10002000E0CF5CF076EF25F004EED7F0C80EF66E68
:100030000F0EF76E10EE30F033EC00F000EE00F033
:10004000090EEE6AE806FDE100EE60F014EE77F0CE
:100050002CEC00F062EF1FF0EE6AE550E150FCE19D
:10006000E250FAE112000900F5CFEEFFE550E15051
:10007000FAE1E250F8E11200FFFFFFFFFFFFFFFF90
:10008000FFFFFFFFFFFFFFFFFFFFFFFFFFFFFFFF80
:10009000FFFFFFFFFFFFFFFFFFFFFFFFFFFFFFFF70
:1000A000FFFFFFFFFFFFFFFFFFFFFFFFFFFFFFFF60
:1000B000FFFFFFFFFFFFFFFFFFFFFFFFFFFFFFFF50
:100F00000043403E3D3633302E2923210014141473
:100F10001414141414141414003D36302E29252EE4
:100F200030363D002D2D2D2D5A2D2D5A5A5A003078
:100F30003330333040363D480025252525252525ED
:100F4000254B0029303D0029303D0014191E0514A1
:100F5000191E0021292129210020202020200021E4
:100F600000210021002004200420001E29303D0023
:100F700032323232003D30291E0032323232002904
:100F8000302930001E1E1E28003D36300028283231
:100F9000003D3630002828320030003000140414A0
:100FA000003D30003232002930002D2D002E790016
:100FB0005A0A003030002D2D002930002D2D003030
:100FC000003C0030002D0000000800001000000070
:100FD00040000000080000000400000001000000C4
:100FE00002000000000100000002000000040000F8
:100FF000800000002000000085EF11F02951D8A4E6
:1010000012009D6B966BB10E886FB10C9D519619B5
:10101000D8B41200B30E886F0A0E296F0A0C9A6BAF
:101020000ED0110E00EE61F0EF626CEF30F09C67B5
:101030006CEF30F0140E40EF30F06CEF30F0A2ECBB
:101040002FF0010AFAE0030AECE0010AF6E0070AD1
:10105000F4E0010AF2E0030AE4E06CEF30F0296703
:1010600003D0B10E886FB10C79EC2EF0430A78E012
:10107000070A01E18ED0020A10E00C0A0DE0010A15
:101080000BE01B0A01E18FD0010A01E18CD0050AB7
:1010900028E0340A01E1B4D012001CD09251D8B437
:1010A0001200926B010EE8CF63F04B6E110E496E89
:1010B000000E4A6AE5EC2DF0010E496E120E4BEC63
:1010C00030F0496AA3EC15F017EC2EF09BEC30F0F1
:1010D000C0EF2FF0A2EC2FF0030AE0E0070ADEE0F9
:1010E00012009251D8A4120061EC2FF0096E09048D
:1010F000D8B4120000016051DD0A23E1010E496EEF
:10110000040E4BEC30F0C0EF2FF058EF28F0855173
:1011100002E01DEF2DF03F0E00EE66F0EF6209D009
:10112000010E8A6F00EE65F0EF623CEF2DF03CEFB0
:101130002FF0010E00EE65F0EF621DEF2DF0C0EF15
:101140002EF0A2EC2FF0010AE0E0030ADEE0010A33
:10115000DEE0070ADCE0010AD8E0030AD6E012006C
:101160000FD0010E496E030E4BEC30F0C0EF2FF0A4
:10117000010E496E030E4BEC30F01E0E2A6F1E0C52
:10118000A2EC2FF0020AEDE0060AF2E0020AE9E022
:1011900012001B6704D02A6702D0D6EF2EF02A6B0C
:1011A000926BC0EF2FF0010E00EE63F0EF6204D0FF
:1011B000856702D0D6EF2EF061EC2FF0096E09049E
:1011C000D8B4120000016051DD0A0BE1010E496E36
:1011D000040E4BEC30F0C0EF2FF058EF28F0C4EFC6
:1011E00022F0A2EC2FF0010AF8E0030AF6E0010A6F
:1011F000F6E0070AF4E0010AF0E0030AEEE012006C
:101200008551D8A4120061EC2FF0096E0904D8B4FE
:10121000120015D0370E035C070E045802E359EF95
:101220002CF0010E496E040E4BEC30F0C0EF2FF0A5
:10123000010E496E040E4BEC30F0C0EF2FF0A2EC23
:101240002FF0010AE7E0030AF3E0010AF1E0070AE0
:10125000EFE0010AEDE0030AEBE0120029670ED08F
:10126000090EA06F8C868B988B9A010E496E040E26
:101270004BEC30F09BEC30F0C0EF2FF079EC2EF01F
:10128000430A1DE0070A1CE0010A28E0030A01E105
:10129000ECD00E0A01E1F0D0020A11E0010A0FE0E1
:1012A0001B0A01E116D1010A01E113D1030A01E190
:1012B0002BD1010A01E132D1330A01E138D1120008
:1012C0008C868B988B9A1B6703D02A6701D034D207
:1012D0002A6B1B05D8B4C0EC2FF012009B05D8B4C4
:1012E0001200076629D072EC2FF0010E496E030E32
:1012F0004BEC30F0050E00EE64F0EF62050C8A0551
:1013000009E18C86640E566E000E576A56EC30F07A
:10131000F3EF0FF0496AA3EC15F017EC2EF0640E12
:10132000566E000E576A56EC30F049684A68000E57
:101330004B6A4C6A17EF2EF0DFEC29F0020A27E126
:1013400016EC26F0B0EC30F0F098090EA06F72ECBD
:101350002FF0050E00EE64F0EF6207D0FA0E566E25
:10136000000E576A56EC30F007D0010E496E030E9E
:101370004BEC30F09BEC30F004018A0504E1D0EC3A
:1013800023F0C4EF22F01EEC23F0C4EF22F0DFECD8
:1013900029F0096E090442E116EC26F0B0EC30F0B9
:1013A000F098090EA06F72EC2FF0050E00EE64F0BD
:1013B000EF6207D0FA0E566E000E576A56EC30F008
:1013C00007D0010E496E030E4BEC30F09BEC30F071
:1013D00004018A051AE18A6B855103E08C86C4EF0B
:1013E00022F0496AF00E4A6E000E4B6A4C6A17EC06
:1013F0002EF0010E496E130E4BEC30F09BEC30F0EA
:10140000060EA06F320E296F320C855103E08C86D8
:10141000C4EF22F01EEC23F0C4EF22F00401C46BF1
:10142000030E07640AD00D0E076007D0D4EC27F036
:10143000096E0904D8B4120008D08C86010E496EDA
:10144000040E4BEC30F09BEC30F08A05496805E166
:1014500081EC15F017EC2EF004D07CEC15F017ECB5
:101460002EF0010EC46F72EF2FF09B05D8B412005E
:1014700072EC2FF0F6EF10F09B0503E1020EA56F62
:10148000020C0C0E07600ED0320E0724E96EEA6AD9
:10149000040EEA2207C4EFFF072A320E296F2B6FD2
:1014A000F6EF10F08C86010E496E040E4BEC30F016
:1014B0009BEC30F08A05496806E181EC15F017ECE9
:1014C0002EF072EF2FF07CEC15F017EC2EF072EF8F
:1014D0002FF09B6B090EA06F16EC26F0B0EC30F0ED
:1014E0008C868B988B9A010E00EE63F0EF6204D02D
:1014F000856702D0D6EF2EF061EC2FF0096E09045B
:10150000D8B41200C4EF22F09B6B16EC26F0B0ECBE
:1015100030F08C868B988B9AC4EF22F09B6BD4ECC6
:1015200027F0096E0904D8A4C0EC2FF012009B6BC1
:10153000090EA06F16EC26F0B0EC30F08C868B987C
:101540008B9A010E496E040E4BEC30F0C0EF2FF079
:10155000296702D058EF28F0010E00EE62F0EF622A
:1015600004D06CEF30F0C0EF2FF0A2EC2FF0010AA6
:10157000FAE0020AF8E0070AF6E0010AF4E00CD00B
:10158000120058EF28F0C0EF2FF0010E496E040E44
:101590004BEC30F09BEF30F079EC2EF0440AF3E0A6
:1015A0000E0AEEE0010AECE01B0AEBE0010AE9E0BA
:1015B000020AEBE0070AE5E0340AE7E01200F29ED7
:1015C0002F512E1110E1080E2E6F070E2F6FF28E85
:1015D000010E496E030E4BEC30F0C20E886F8C8604
:1015E0008B988B9AC20CF28E85512CE06CD1120034
:1015F0001DEC2DF0C10E886F12008C868B988B9A93
:101600001B6704D02A6702D0D6EF2EF02A6B1B0589
:10161000D8B4C0EC2FF012008C868B988B9A010EF8
:10162000496E150E4BEC30F09BEC30F0C0EF2FF014
:101630008C868B988B9A010E496E150E4BEC30F010
:10164000C0EF2FF079EC2EF0420AD6E0010ACFE08D
:10165000070AD3E00E0ACBE0010AC9E01B0ADCE06E
:10166000010ADAE0050AC4E0340AE2E0010AE0E037
:101670001200F29E2F512E1116E1090EA06F16ECEA
:1016800026F0B0EC30F0080E2E6F070E2F6FF28EA2
:10169000010E496E030E4BEC30F0C20E886F8C8643
:1016A0008B988B9AC20CF28E855107E0090EA06FC1
:1016B00016EC26F0B0EC30F006D1296713D0090EF5
:1016C000A06F16EC26F0B0EC30F08C868B988B9ADD
:1016D000010E496E040E4BEC30F09BEC30F0C00E66
:1016E000886FC00C79EC2EF0430A1EE0070A1DE05B
:1016F000010A2CE0030A5DE00E0A6DE0020A14E024
:10170000010A12E01B0A01E194D0010A01E191D023
:10171000030A01E18ED0010A01E19BD0330A01E105
:1017200088D0010A01E185D012008C868B988B9AB3
:101730001B6706D02A6704D0090EA06FD6EF2EF0E3
:101740002A6B1B05D8B4C0EC2FF0120007660ED030
:1017500072EC2FF0496A64EC15F017EC2EF0640E71
:10176000566E000E576A56EC30F0DFD5090EA06FAA
:10177000DFEC29F000090CE08C868B988B9A010E27
:10178000496E150E4BEC30F09BEC30F0C0EF2FF0B3
:101790008C868B988B9A010E496E040E4BEC30F0C0
:1017A0009BEC30F016EC26F0B0EC30F0C00E886FF9
:1017B000C00C496A64EC15F017EC2EF0640E566EFE
:1017C000000E576A56EC30F049687CEC15F017ECC7
:1017D0002EF072EF2FF00C0E076018D0320E072497
:1017E000E96EEA6A040EEA2207C4EFFF072A320E06
:1017F000296F2B6F496A64EC15F017EC2EF0640E1C
:10180000566E000E576A56EC30F08FD5090EA06F59
:101810008C868B988B9A010E496E040E4BEC30F03F
:101820009BEC30F016EC26F0B0EC30F0C00E886F78
:10183000C00C090EA06F16EC26F0B0EC30F08C86D0
:101840008B988B9A010E496E150E4BEC30F0C0EF61
:101850002FF0090EA06F8C868B988B9A010E496E23
:10186000040E4BEC30F09BEC30F016EC26F0B0ECB4
:1018700030F0C00E886FC00CF29E2F512E110BE17C
:10188000F28E8C868B988B9A070E496E160E4BEC57
:1018900030F0C0EF2FF0640E116E000E126A2EC4ED
:1018A0000FF02FC410F0AFEC2DF010500F1008E126
:1018B0002E07D8A02F07010E496E160E4BEC30F004
:1018C000F28E85511FE08C868B988B9AC0EF2FF09B
:1018D00012008C868B988B9A1B6704D02A6702D0E3
:1018E000D6EF2EF02A6B1B05D8B4C0EC2FF01200F7
:1018F0008C868B988B9A010E496E150E4BEC30F04E
:10190000C0EF2FF079EC2EF0430AE2E0070AE1E0A5
:101910000E0ADEE0010ADCE01B0AEAE0010AE8E068
:10192000050AD6E0340AE4E0010AE2E01200F29E81
:101930002F512E1102E1F28E24D0F28E2C0507E1F8
:101940001A6705D01B0503E12C6B270E8C6F79EC11
:101950002EF04A0A08E0010A06E01F0A05E0340AF0
:1019600008E0010A06E012001DEC2DF0C40E886F9D
:10197000C40CB0D0F29E2F512E1108E1F28E090E48
:10198000A06F8C868B988B9AA9EF2EF0F28E2C0587
:1019900007E11A6705D01B0503E12C6B270E8C6F3E
:1019A000296713D0090EA06F8C868B988B9A010E35
:1019B000496E040E4BEC30F09BEC30F016EC26F048
:1019C000B0EC30F0C30E886FC30C79EC2EF0450AF2
:1019D00015E0030A3BE00E0A4DE0020A0EE0010AA0
:1019E0000CE01B0A74E0010A08E0030A71E0010A36
:1019F00076E0330A6DE0010A6BE0120007660ED054
:101A000072EC2FF0496A64EC15F017EC2EF0640EBE
:101A1000566E000E576A56EC30F087D4090EA06F50
:101A2000DFEC29F0000901E055D08C868B988B9A69
:101A3000010E496E040E4BEC30F09BEC30F016ECCE
:101A400026F0B0EC30F0C30E886FC30C496A64EC2A
:101A500015F017EC2EF0640E566E000E576A56EC19
:101A600030F049684A68000E4B6A4C6A17EC2EF059
:101A700072EF2FF00C0E076018D0320E0724E96EBB
:101A8000EA6A040EEA2207C4EFFF072A320E296F22
:101A90002B6F496A64EC15F017EC2EF0640E566E4D
:101AA000000E576A56EC30F040D4090EA06F8C86B9
:101AB0008B988B9A010E496E040E4BEC30F09BEC28
:101AC00030F016EC26F0B0EC30F0C30E886F120048
:101AD000090EA06F8C868B988B9A9FEF2BF0090EC6
:101AE000A06F8C868B988B9A010E496E040E4BEC7E
:101AF00030F09BEC30F016EC26F0B0EC30F0C30E7A
:101B0000886FC30CF29E2F512E1106E1F28E9A6B54
:101B1000296BB20E886FB20CF28E00EE62F0EF50BD
:101B200003E19A6BC0EF2FF079EF2EF08751110A85
:101B3000D8A412008C868B988B9A9D6B966B1E0E88
:101B40002A6F1B05010E496E0DE1140E4BEC30F0AF
:101B50001A67C0EF2FF0C50503E1C56B6CEF30F0DD
:101B6000C56B47D00E0E4BEC30F0010E926F26EC99
:101B700024F0496A010E4A6E000E4B6A4C6A17EC5B
:101B80002EF06CEF30F08751110AD8A412008C8629
:101B90008B988B9AC96B010E00EE63F0EF620AD04E
:101BA000000EE8CF63F04B6A110E496E000E4A6AD0
:101BB000E5EC2DF0010E00EE62F0EF620AD0000EAF
:101BC000E8CF62F04B6A100E496E000E4A6AE5ECEF
:101BD0002DF09D6B966B1B05010E496E04E1140EF2
:101BE0004BEC30F003D00E0E4BEC30F01A67C0EF28
:101BF0002FF0460E40EF30F08B51070A12E1580EDD
:101C0000566E110E23EC2BF0050EA06F8C868B9870
:101C10008B9A9BEC30F016EC26F0B0EC30F0C0EF75
:101C20002FF0296707D0010E496E040E4BEC30F0FF
:101C3000070E8B6F79EC2EF0430A21E0070A1FE0B4
:101C4000010A26E0030A01E195D20E0A01E1ADD2B4
:101C5000020A15E0010A13E01B0A12E0010A10E073
:101C6000030A01E1CED2010A01E1F5D2330A01E112
:101C700009D3010A01E11DD3020A01E130D31200A8
:101C8000010E496E040E4BEC30F0070E8B6F070C03
:101C90005BD2B0EC30F0010E496E030E4BEC30F02D
:101CA0009BEC30F0076607D072EC2FF026EC24F0A6
:101CB000640E296F640C94EC2DF000090CE112EC19
:101CC0002CF0000908E15AEC2DF0000904E1FDECCC
:101CD0002CF000090FE0010E496E080E4BEC30F0BD
:101CE000496A64EC15F017EC2EF09BEC30F0070E0F
:101CF0008B6F070CDFEC29F0020A15E18C86010ED0
:101D0000496E0C0E4BEC30F09BEC30F0076A100E75
:101D10003EEC15F082EC2FF026EC24F0640E296FD7
:101D2000020E8B6F60D1010E496E040E4BEC30F049
:101D3000070E8B6F070CB0EC30F0010E496E030EEE
:101D40004BEC30F09BEC30F0030E076440D00D0EEE
:101D500007603DD0DFEC29F0000908E0010E496E74
:101D6000040E4BEC30F0070E8B6F070C0C0E106E50
:101D70000401320E0E6E040E0F6E690E0C6E000E14
:101D80000D6A29EC2FF0E16A690EE124E96EEA6A36
:101D9000000EEA22EF504B6E200EE124496E4A6A93
:101DA000000E4A22E5EC2DF0E12A0B0EE164ECD79F
:101DB000010E496E080E4BEC30F0496A64EC15F0E8
:101DC00017EC2EF09BEC30F0070E8B6F070C9DECA0
:101DD0002AF0000919E08C86076A100E3EEC15F017
:101DE00082EC2FF0030E04018B6F060EA06F26EC21
:101DF00024F0640E296F010E496E0C0E4BEC30F08E
:101E00009BEC30F095EF09F0010E496E040E4BEC9F
:101E100030F0070E8B6F070CB0EC30F0010E496EFE
:101E2000030E4BEC30F09BEC30F0030E07647ED0D9
:101E30000D0E07607BD0DFEC29F0000908E0010EF1
:101E4000496E040E4BEC30F0070E8B6F070C68C028
:101E5000D9FFD9CF09F0092A09C068F068C04BF052
:101E600039EC15F0E5EC2DF008500D0D680EF3245B
:101E7000E96E000EF420EA6E010EEF6E4B6E30EC50
:101E800015F0E5EC2DF0010ED96ED950FF0F096E5B
:101E90000401320E0924E96EEA6A040EEA220850AF
:101EA0000D0D680EF3240A6E000EF4200B6ED9504F
:101EB0000A24E16E000E0B20E26EEFCFE7FFD9504F
:101EC000FF0F096E320FE96EEA6A040EEA22EF5044
:101ED0004B6E08500D0DD950F326000EF422230E40
:101EE000F324496E000EF4204A6EE5EC2DF0D92A59
:101EF0000C0ED964CAD7010E496E080E4BEC30F0B7
:101F0000496A2AEC15F017EC2EF09BEC30F0010E2C
:101F1000C36F076A100E3EEC15F082EC2FF026EC32
:101F200024F0080E8B6F640E296F5DD0010E496E90
:101F3000040E4BEC30F0070E8B6F070CB0EC30F05A
:101F4000010E496E030E4BEC30F09BEC30F09DEC33
:101F50002AF0000919E08C86076A100E3EEC15F095
:101F600082EC2FF0030E04018B6F060EA06F26EC9F
:101F700024F0640E296F010E496E0C0E4BEC30F00C
:101F80009BEC30F095EF09F0010E496E040E4BEC1E
:101F900030F0070E8B6F070CB0EC30F0010E496E7D
:101FA000030E4BEC30F09BEC30F0DFEC29F0020A32
:101FB0001DE18C86076A100E116E126A0401320E42
:101FC0000F6E040E106E82EC2FF0090E04018B6F61
:101FD00026EC24F0640E296F010E496E0C0E4BECBA
:101FE00030F09BEC30F049680F0E49D1010E496E7C
:101FF000040E4BEC30F0070E8B6F070CB0EC30F09A
:10200000010E496E030E4BEC30F09BEC30F043ECCC
:102010002AF0000908E1010E496E040E4BEC30F085
:10202000070E8B6F070C08500D0D680EF324E96E38
:10203000000EF420EA6E010EEF620DD068C0E1FFE1
:10204000E1CF09F0090609C068F068C04BF039EC2F
:1020500015F0E5EC2DF008500D0D680EF324E96E37
:10206000000EF420EA6E020EEF620FD067C0D9FFB7
:10207000D9CF09F0090609C067F067C04BF0180E08
:10208000496E000E4A6AE5EC2DF03F0E00EE66F058
:10209000EF6213D000EE68F0EF5004E000EE67F05E
:1020A000EF500BE13A0EE8CF66F066C04BF0140E2D
:1020B000496E000E4A6AE5EC2DF008500D0D680ED1
:1020C000F324E96E000EF420EA6EEF6A4B6A30ECFE
:1020D00015F0E5EC2DF0496A2AEC15F017EC2EF01E
:1020E000010E496E080E4BEC30F09BEC30F0070E01
:1020F0008B6F070CB0EC30F0010E496E030E4BEC09
:1021000030F09BEC30F037EC2CF0000904E1DFEC10
:1021100029F0020A11E1C6EC1DF0010E496E080E0D
:102120004BEC30F0496A2AEC15F017EC2EF09BECE2
:1021300030F0070E8B6F070C010E496E040E4BEC4E
:1021400030F0070E8B6F070C8B51010A01E1A1D50E
:10215000030A01E1F0D5010A01E15ED6060A01E1B8
:102160001BD7030AC7E00E0A01E1E8D6010A01E124
:1021700045D712008B51030A10E107660ED0580EA6
:10218000566E110E23EC2BF0050EA06F26EC24F0FA
:10219000496824EC15F017EC2EF072EC2FF0075183
:1021A00017EC28F0640E296F640C8B51030A10E1C0
:1021B00007660ED0580E566E110E23EC2BF0050E4E
:1021C000A06F26EC24F0496824EC15F017EC2EF0F3
:1021D0000C0E07600ED0320E0724E96EEA6A040E78
:1021E000EA2207C4EFFF072A640E296F075117EF91
:1021F00028F0010E496E040E4BEC30F0070E8B6F89
:10220000070C8B51030A03E1B0EC30F0F098580E44
:10221000566E110E23EC2BF0050EA06F8C86010E6E
:10222000496E080E4BEC30F09BEC30F026EC24F0BD
:10223000496824EC15F017EC2EF0076A100E3EECFE
:1022400015F082EC2FF0080E04018B6F640E296FDD
:10225000010EC36F010C8B51030A05E1B0EC30F0A5
:10226000F098040E8B6F640E296F8C86010E496EF8
:10227000040E4BEC30F09BEC30F0496AF00E4A6EE5
:1022800097EF09F0C3050DE1B0EC30F0010E496E97
:10229000080E4BEC30F0496A2AEC15F017EC2EF0E2
:1022A00005D0010E496E040E4BEC30F0070E8B6F1B
:1022B000070C8C86010E496E050E4BEC30F09BEC42
:1022C00030F0496824EC15F017EC2EF026EC24F0E1
:1022D00072EC2FF0640E296F050E8B6F050C8C8647
:1022E000010E496E050E4BEC30F09BEC30F0496866
:1022F00024EC15F017EC2EF026EC24F072EC2FF005
:10230000640E296F060E8B6F060C885102E1FEEFFA
:1023100007F0B10A02E10FEF08F0030A02E106EF4D
:1023200008F0010A02E12FEF08F0070A02E12EEFA0
:1023300009F0020A02E1A8EF0AF0010A02E196EFB1
:102340000DF00F0A01E11FD4010A01E155D4790A09
:1023500002E1DFEF0AF0010A02E139EF0BF0030AB4
:1023600002E13CEF0CF0010A02E197EF0CF0070AE2
:1023700002E1BAEF0CF0030A02E182EF0DF0120065
:102380004968C4EC15F017EC2EF0296701D0120053
:1023900085B8FBD7FA0E566E000E576A56EC30F031
:1023A000BFEC15F056EC30F00401816B826B836B4F
:1023B000846B81B6818F85A4828581AA81B882834E
:1023C00085B824D077EC2DF00BC003F00CC004F0DE
:1023D000360E035C070E04580CE2240E0401811330
:1023E000040E8213000E81C449F0B8EC15F017EC0E
:1023F0002EF081C449F0B8EC15F017EC2EF0640E05
:10240000566E000E576A56EC30F0CED74968C4ECD1
:1024100015F017EC2EF0FA0E566E000E576A56ECB9
:1024200030F0BFEC15F056EC30F0BFEC15F056EC88
:1024300030F0BFEC15F056EC30F0FA0E566E000E90
:10244000576A56EC30F0BFEC15F056EC30F0BFECAC
:1024500015F056EC30F0BFEC15F056EC30F0000EF5
:10246000B3EC15F017EC2EF0500E496E080EAEECE2
:1024700015F017EC2EF087EC30F094909492949431
:1024800094968B908B82020E0401896F140E866FD6
:10249000020EB36F8BEC1CF0D0EC24F08967FCD7F4
:1024A000F8EC2FF0050E496E020E4BEC30F08B80ED
:1024B0008B82D0EC24F08967FCD7880E496E040E1D
:1024C000AEEC15F017EC2EF09BEC2CF00A0E04018C
:1024D0002B6F0A0E04012B6F24EC16F00A6E0A040F
:1024E000F8E1496AF00EAEEC15F017EC2EF0010E93
:1024F000496E080E4BEC30F0D0EC24F08967FCD725
:10250000000EB3EC15F017EC2EF01DEC30F0030EBE
:10251000496E010EAEEC15F017EC2EF0C30E9216BC
:1025200085BA85BC53D0898489968998898AC80ED2
:10253000566E000E576A56EC30F085AA85ACFDD772
:10254000FDEC21F035EC30F0ABEC30F0899489866D
:102550008988899A04012367FDD735EC30F0640E31
:10256000566E000E576A56EC30F0ABEC30F0FA0EB7
:10257000566E000E576A56EC30F0BFEC15F056EC74
:1025800030F0899489868988899AC80E566E000E23
:10259000576A56EC30F085BA85BCFDD7FDEC21F0CA
:1025A00035EC30F0ABEC30F0898489968998898AD3
:1025B00004012367FDD735EC30F0640E566E000E33
:1025C000576A56EC30F0ABEC30F052D089948986E3
:1025D0008988899AC80E566E000E576A56EC30F0FC
:1025E00085BA85BCFDD7FDEC21F035EC30F0ABECC5
:1025F00030F0898489968998898A04012367FDD7F8
:1026000035EC30F0640E566E000E576A56EC30F022
:10261000ABEC30F0FA0E566E000E576A56EC30F006
:10262000BFEC15F056EC30F0898489968998898A38
:10263000C80E566E000E576A56EC30F085AA85AC6F
:10264000FDD7FDEC21F035EC30F0ABEC30F08994A7
:1026500089868988899A04012367FDD735EC30F093
:10266000640E566E000E576A56EC30F0ABEC30F04C
:102670008C868B988B9A0401926B16EC26F0B0EC4A
:1026800030F0B0EC26F0CD90F180F08CF08EF1823D
:10269000F18CF19881A602D0F19601D0F186F288F2
:1026A000F088F08AF286C76BD16A0300F296F2983E
:1026B000D16A7BEC24F026EC24F04968C4EC15F0D8
:1026C00017EC2EF081698269000E836B846B096AB6
:1026D00032EC21F0D0EC24F034D007518DEC27F00F
:1026E0000BC081F40CC082F40DC083F40EC084F4DE
:1026F00081C449F0B8EC15F017EC2EF0010E496ECC
:10270000030E4BEC30F0D0EC24F08967FCD7010EBF
:10271000096E1FD007518DEC27F00BC081F40CC05F
:1027200082F40DC083F40EC084F481C449F0B8EC87
:1027300015F017EC2EF0010E496E030E4BEC30F045
:1027400008D079EC2EF0450AC8E0030AE3E00E0A4F
:10275000E1E00904BDE1000E496A4A6A4B6A4C6A2D
:1027600017EF2EF00F6A106A116A126A136A04EEEC
:10277000D7F010EE14F0300EEECFE6FFE82EFCD7C7
:102780008C868A0501E19BD035D1040000EC2FF046
:10279000D0EC24F0040E0F601DD00F50040D140E69
:1027A000F324E96EEA6A000EEA22EE501012EE50AF
:1027B0001112EE501212ED50131210C049F01DEC20
:1027C00016F017EC2EF03C0E566E000E576A56ECC3
:1027D00030F074D00B0E0F6431D00F5008EC16F0AF
:1027E00064EC26F048504C1808E147504B1805E1BE
:1027F00046504A1802E14550491813E0E6EC15F03E
:1028000064EC26F048504C1808E147504B1805E19D
:1028100046504A1802E14550491803E00F50D2ECE7
:1028200015F010C049F01DEC16F017EC2EF03C0E20
:10283000566E000E576A56EC30F040D00F50040D23
:10284000140EF324E96EEA6A000EEA22EE5010122A
:10285000EE501112EE501212ED5013120F5008EC00
:1028600016F064EC26F048504C1808E147504B181D
:1028700005E146504A1802E14550491813E0E6ECDC
:1028800015F064EC26F048504C1808E147504B18FE
:1028900005E146504A1802E14550491803E00F503F
:1028A000D2EC15F010C049F01DEC16F017EC2EF02C
:1028B0003C0E566E000E576A56EC30F00F2A0F0E83
:1028C0000F6463D70F0C040000EC2FF0D0EC24F061
:1028D000040E0F601CD00F50040D140EF324E96E8B
:1028E000EA6A000EEA22EE501012EE501112EE507B
:1028F0001212ED501312000EFCEC15F017EC2EF036
:102900003C0E566E000E576A56EC30F072D00B0E2D
:102910000F6430D00F5008EC16F064EC26F04850ED
:102920004C1808E147504B1805E146504A1802E19F
:102930004550491813E0E6EC15F064EC26F04850D9
:102940004C1808E147504B1805E146504A1802E17F
:102950004550491803E00F50D2EC15F0000EFCEC86
:1029600015F017EC2EF03C0E566E000E576A56EC22
:1029700030F03FD00F50040D140EF324E96EEA6AD4
:10298000000EEA22EE501012EE501112EE5012120A
:10299000ED5013120F5008EC16F064EC26F048507E
:1029A0004C1808E147504B1805E146504A1802E11F
:1029B0004550491813E0E6EC15F064EC26F0485059
:1029C0004C1808E147504B1805E146504A1802E1FF
:1029D0004550491803E00F50D2EC15F0000EFCEC06
:1029E00015F017EC2EF03C0E566E000E576A56ECA2
:1029F00030F00F2A0F0E0F6466D70F0C100E496EC1
:102A0000000E4A6A1200160E496E000E4A6A120043
:102A10004A6E000E4B6A4C6A12000B500E6E0A0E84
:102A20000F6E0E501200F00E0F140B6E0F0E1014DE
:102A30000C6E040E0D6E1200116E000E126A94C41C
:102A40000FF095C410F012000F0E4A6E000E4B6A84
:102A50004C6A1200F00E4A6E000E4B6A4C6A12006D
:102A600008500D0D230EF324496E000EF4204A6E1B
:102A70001200170E496E000E4A6A1200116E126A99
:102A8000320E0F6E040E106E1200230EF324496EE8
:102A9000000EF4204A6E12000D0D680EF324E96E4C
:102AA000000EF420EA6EEF5012000D0D680EF324B4
:102AB000E96E000EF420EA6EEF5012000401320EAF
:102AC0000F6E040E106E1200F00E4A6E000E4B6A6E
:102AD0004C6A1200420E1724E96EEA6A040EEA22DA
:102AE0001850EF12172A1200E96EEA6A040EEA2261
:102AF000EF50566E020E12004A68000E4B6A4C6A86
:102B000012000F0E4A6E000E4B6A4C6A1200F00E55
:102B10004A6E000E4B6A4C6A1200F00E4A6E000EAE
:102B20004B6A4C6A12004E26000E4F2250221200B1
:102B30004D26000E4E224F2250221200130E496ED7
:102B4000000E4A6A1200F00E4A6E000E4B6A4C6A82
:102B50001200140E496E000E4A6A12004A6E000EF0
:102B60004B6A4C6A1200496A4A6A4B6A4C6A120004
:102B700082C44AF083C44BF084C44CF01200FA0EB5
:102B8000566E000E576A12004A68000E4B6A4C6A75
:102B900012004A544A6E000E4B544B6E000E4C54B9
:102BA0004C6E1200040DF3CF44F0F00E4426140EC8
:102BB0004424E96EEA6A000EEA22EE50105EEE50FE
:102BC000115AEE50125AED50135A12000F50040DC4
:102BD000F3CF44F0F00E4426140E4424E96EEA6A62
:102BE000000EEA22EECF45F0EECF46F0EECF47F0F2
:102BF000EECF48F0065012001010496EF00E111082
:102C00004A6E000E12104B6E000E13104C6E120026
:102C1000040DF3CF44F0F00E4426140E4424E96E64
:102C2000EA6A000EEA22EECF45F0EECF46F0EECF94
:102C300047F0EECF48F00550120011C04AF012C024
:102C40004BF013C04CF0120004002B6701D0000CB5
:102C5000D0EC28F0AAEC29F00E6E0E0401E010D1A1
:102C6000D96A0401420ED924E96EEA6A040EEA2206
:102C7000EF6AD92A0E0ED964F4D7050E106E0F6ACA
:102C8000930EDFEC1BF0050E106E0F6A930E56ECE0
:102C900020F00D6E0D0430E142C432F443C433F42D
:102CA00044C434F445C435F4366B376B386B396B38
:102CB0003A6B3B6B3C6B3D6B3E6B3F6B406B416BD0
:102CC0007AEC2CF0566A010E23EC2BF004014251F1
:102CD000080A04E042510F0B0F0A01E1000C4EEC10
:102CE0002BF00E6E0E0404E1110E0401986F020C1D
:102CF00004019767A9D7010C0D50030A32E1ECECEF
:102D00002BF00E6E0E042CE17AEC2CF0566A010EBC
:102D100023EC2BF042C432F443C433F444C434F4FF
:102D200045C435F446C436F447C437F448C438F4CF
:102D300049C439F404013A6B3B6B3C6B3D6B3E6B11
:102D40003F6B406B416B4EEC2BF00E6E0E0404E1BA
:102D5000110E0401986F020C0401976775D7010CDE
:102D6000000C0D50020A01E086D00A0E106E050E0E
:102D70000F6E950EDFEC1BF00A0E106E050E0F6E37
:102D8000950E56EC20F00D6E0D042BE17AEC2CF034
:102D9000566A010E23EC2BF043C432F444C433F4DE
:102DA00045C434F447C435F448C436F449C437F450
:102DB0004AC438F40401396B3A6B3B6B3C6B3D6B96
:102DC0003E6B3F6B406B416B4EEC2BF00E6E0E0476
:102DD00004E1110E0401986F020C0401976734D7C7
:102DE000010C0D50020A40E10F0E106E0A0E0F6E1C
:102DF000970EDFEC1BF00F0E106E0A0E0F6E970E83
:102E000056EC20F00E6E0E0401E01ED77AEC2CF08A
:102E1000566A010E23EC2BF043C432F444C433F45D
:102E200045C434F448C435F449C436F44AC437F4CC
:102E30004CC438F44DC439F44EC43AF44FC43BF496
:102E400004013C6B3D6B3E6B3F6B406B416B4EEC4A
:102E50002BF00E6E0E0404E1110E0401986F020CAB
:102E600004019767F1D6010C7AEC2CF0566A010E3A
:102E700023EC2BF0000C566A010E23EC2BF0EAD663
:102E8000566A010E23EC2BF0000CFAD08C51380A54
:102E900003E08C51270A27E18C51270A0EE11E0E10
:102EA0002D6F440EA36F8751110AD8A4DEEC2FF0CA
:102EB000220E876FB4EC30F016D08C51380A13E133
:102EC000C651330AD8A4DEEC2FF0C669440EA36FB6
:102ED0001E0E2D6F8751110AD8A4DEEC2FF0660E5E
:102EE000876FB4EC30F08C6B1200C80E226F030EAB
:102EF000A46F8751220AD8A4DEEC2FF01E0E2D6F8E
:102F0000330E64D022510BE01B671200FDEC21F060
:102F100035EC30F0ABEC30F0CC0E04018BD01B5113
:102F200015E035EC30F0ABEC30F0010E496E0D0ED3
:102F30004BEC30F09BEC30F08751330AD8A4DEEC38
:102F40002FF0440E876FC80E226F80D00A0E566E87
:102F5000000E576A56EC30F0AA0E0401876FAA0CD7
:102F60002267120035EC30F0ABEC30F00401A4071E
:102F7000A451D8A41A0506E1010EC56F24EC25F072
:102F8000CC0E24D0C80E226F8751440AD8A4DEECA0
:102F90002FF0330E876F33D0C80E226F030EA46F4D
:102FA0008751660AD8A4DEEC2FF01E0E2D6F770E27
:102FB00041D022510EE01B05D8A41200FDEC21F0F7
:102FC00035EC30F0ABEC30F0CC0E0401876FFEEF47
:102FD0002DF01B0518E035EC30F0ABEC30F0010EB5
:102FE000496E0D0E4BEC30F09BEC30F08751770AB8
:102FF000D8A4DEEC2FF0880E876FC80E226F1E0E4D
:103000002D6FFEEF2DF00A0E566E000E576A56EC2D
:1030100030F0AA0E0401876FAA0C2267120035EC6B
:1030200030F0ABEC30F00401A407A46706D024EC28
:1030300025F0CC0E876F30EF2EF0C80E226F87512F
:10304000880AD8A4DEEC2FF0770E876F1E0E2D6F46
:1030500030EF2EF02351D8A4120035EC30F00A0ED8
:103060000401226FBB0E876FBB0C2251D8A4120043
:10307000ABEC30F0640E246FA369110E876F110C56
:103080008751110A01E102D7330A01E12ED7110A53
:1030900001E138D7770A01E163D7220A01E17CD741
:1030A000110A87E0FF0AB9E0220AD9E0110ADDE03F
:1030B000770AD0E0DEEF2FF0F7D012009BEC2CF077
:1030C000640E04012B6F070EA06F070C2B6703D053
:1030D000090EA06F090C24EC16F0096E096606D0E3
:1030E000080E0401A06F280E206F280C090401E0CF
:1030F000A5D004018851B90A01E097D08B51040A88
:1031000004E08B51030A01E090D000EE68F0EF502C
:1031100067C00AF00AC00BF00C6A0B26000E0C22E6
:103120000C50800A800F460ED8B40B5C09E3530E96
:10313000CFEC2FF02B6B020E206F090EA06F090C45
:1031400067C0D9FFD9CF0AF00A2A0AC067F067C062
:103150004BF0180E496E000E4A6AE5EC2DF008504F
:103160000D0D680EF324E96E000EF420EA6E020ED7
:10317000EF6E4B6E08500D0D45EC15F0E5EC2DF0A3
:10318000010ED96ED950FF0F0A6E320FE96EEA6A4E
:10319000040EEA2208500D0D680EF3240B6E000E8B
:1031A000F4200C6ED9500B24E16E000E0C20E26E60
:1031B000EFCFE7FFD950FF0F0A6E320FE96EEA6AD0
:1031C000040EEA22EF504B6E08500D0DD950F32635
:1031D000000EF42245EC15F0E5EC2DF0D92A0A0E8C
:1031E000D964D0D70B0EE16E08500D0D680EF32494
:1031F0000A6E000EF4200B6EE1500A24E96E000EF8
:103200000B20EA6EEF6A4B6A08500D0DE150F32671
:10321000000EF42245EC15F0E5EC2DF0E12A0C0E41
:10322000E164E2D7520ECFEF2FF0530ECFEC2FF028
:103230002B6B020E206F090EA06F090C0950020AB9
:103240001BE104018851B90A06E1530ECFEC2FF0BF
:10325000640E2B6F640C9851110AD8A4DEEC2FF089
:103260009869220E9F6F520ECFEC2FF02B6B020E3F
:10327000206F090EA06F090C1DEC30F09BEC2CF0B8
:103280000A0E0401206F2067FED712002B6702D0C0
:10329000090EA06F20671200070EA06F070C1DEC2F
:1032A00030F0050EA06F050CA051050A01E105D70D
:1032B000030A01E103D7010A01E108D70F0AE6E09A
:1032C000010AEDE0050EA06F050CEAD01200640EB5
:1032D0001CEC15F0AFEC2DF00FC011F010C012F087
:1032E00076EC30F070EC2AF013EC15F00C340C3264
:1032F0000B320D2EFBD70DEC15F015EC2FF00A6EEE
:1033000070EC2AF013EC15F00C340C320B320D2E4D
:10331000FBD70DEC15F015EC2FF0F36E0A0E1CEC3C
:1033200015F0AFEC2DF00F50096EF3500A620DD07E
:1033300009500BE00A0E116E126A09500A240F6E32
:10334000106A103613EC2AF010D0F3500A620FD036
:1033500009660DD00A0E116E126A030E0A240F6E52
:10336000106A000E102213EC2AF00F50F36E0AC000
:1033700005F0F3CF06F0020EBF6F010E496E110E7D
:103380004BEC30F0B2EC13F0010E496E030E4BEC37
:1033900030F026EC24F0320E296FA56B1200075195
:1033A0003EEC29F0996FBF051DE19951056218D0D7
:1033B0008A0502E18C8606D0496AF00E08EC15F009
:1033C00017EC2EF0320E296F2B6F010E496E030E93
:1033D0004BEC30F09BEC30F0030EA56F9B6B1200B2
:1033E000A56B12000550991905E0995100EE06F001
:1033F000EF6230D09951056202D006C005F0010E8F
:10340000BF6F8A050EE1055064EC26F049C049F013
:103410004AC04AF04BC04BF04CC04CF017EC2EF0B9
:1034200011D0055064EC26F0000E4910496EF00EE4
:103430004A104A6E000E4B104B6E000E4C104C6E34
:1034400017EC2EF0320E296F2B6F010E496E030E12
:103450004BEF30F0A56B12008A51496806E00F0E61
:1034600008EC15F017EC2EF006D04A68000E4B6AF7
:103470004C6A17EC2EF0076A100E116E126A320EAB
:103480000F6E040E106E82EC2FF0320E0401296FC5
:1034900026EC24F0320E2B6FB40E886FA56B120051
:1034A0000401A55101E112D7010A01E110D7030A75
:1034B00001E175D7010AD0E0120081BA81A806D0D7
:1034C00004019A6703D0440ECFEC2FF00001605145
:1034D000DD0A49E053D081BA02D081A81200020E61
:1034E000186F196B120081BA02D081A819D0192B5C
:1034F00004EE19F0040EEF64040C030E186F1A6B3F
:10350000430ECFEC2FF081AA02D0AA0E01D0BB0E41
:103510000001606F4B6E150E496E4A6AE5EF2DF0A3
:10352000010E186F010C81AA81B81200040E186FE9
:10353000196B120081AA81B838D0192B04EE19F04A
:10354000040EEF64040C010E186F1A6F440ECFEFD7
:103550002FF081BA02D081A802D0020E01D0040E51
:10356000186F196B120004011851010AB4E0030A24
:10357000BAE0010AD8E0070ADDE0EBD76051AA0AF9
:103580001FE053D081AA1200020E186F196B1200AF
:1035900081BA29D0010E186F010C81BA1200040EF5
:1035A000186F196B120081AAC8D7030E186F030C8D
:1035B00081AA02D0020E01D0040E186F196B1200FE
:1035C00004011851010ADEE0030AE2E0010AE5E025
:1035D000070AE9E0EDD781A81200020E186F196BF7
:1035E000120081A80CD0192B04EE19F0040EEF6420
:1035F000040C030E186F1A6B430ECFEF2FF0010E61
:10360000186F010C81B81200040E186F196B1200AC
:1036100081A893D7030E186F030C81A802D0020E65
:1036200001D0040E186F196B120004011851010A21
:10363000D2E0030AD6E0010AE5E0070AE9E0EDD7A7
:10364000FD0E0C6E030E0D6E61EC30F0AA0A11E156
:10365000FE0E0C6E030E0D6E61EC30F0550A09E1A2
:103660000C68030E0D6E61EC30F0A50A02E154EF18
:103670001EF0DD0E4B6E150E496E000E4A6AE5EC2B
:103680002DF0DD0E0001606F110E4B6E160E496EAF
:10369000000E4A6AE5EC2DF0110EE8CF61F04B6A9E
:1036A000496E000E4A6AE5EC2DF0000EE8CF63F09B
:1036B000060E4B6E120E496E000E4A6AE5EC2DF0B6
:1036C000060EE8CF64F04B6A100E496E000E4A6A8F
:1036D000E5EC2DF0000EE8CF62F0010E4B6E130EFC
:1036E000496E000E4A6AE5EC2DF0010EE8CF65F058
:1036F0003A0E4B6E140E496E000E4A6AE5EC2DF040
:103700003A0EE8CF66F04FEC2FF0096E09042AE17B
:103710000C0E116E126A690E0F6E000E106A82ECAA
:103720002FF0010EE8CF69F0060EE8CF6AF00C0E1C
:10373000E8CF6BF0020EE8CF6CF0D96A690ED9249D
:10374000E96EEA6A000EEA22EF504B6E200ED92491
:10375000496E4A6A000E4A22E5EC2DF0D92A0B0E7A
:10376000D964ECD7E16A690EE124E96EEA6A000ED9
:10377000EA22200EE1240C6E0D6A000E0D2261EC8F
:1037800030F0EF6EE12A0B0EE164EDD7CAEC2AF0BF
:10379000AA0E4B6EFD0E496E030E4A6EE5EC2DF03F
:1037A000550E4B6EFE0E496E030E4A6EE5EC2DF083
:1037B000A50E4B6E4968030E4A6EE5EF2DF0E8CF7B
:1037C00012F0166A156A136A1250930AD8B4976BEE
:1037D0000FC017F01050175C09E2420E1724E96E73
:1037E000EA6A040EEA22EF6A172AF4D7566A0F0E25
:1037F00023EC2BF0030E566E220E23EC2BF0280E3A
:10380000566E1A0E23EC2BF0010E566E090E23ECA9
:103810002BF012C056F0020E23EC2BF01350200FA9
:10382000566E020E23EC2BF00FC017F00F5016C08F
:1038300018F0196A1826000E192217C01AF01B6A10
:103840001B50800A1C6E18501A5C1950800A1C58B4
:1038500008E2420E172474EC15F023EC2BF0172A23
:10386000E5D715500DE0420E162474EC15F023EC4C
:103870002BF01538F00B1510566E0F0E23EC2BF0B5
:103880001E0E566E010E23EC2BF0020E566E000E2D
:10389000576A56EC30F00A0E07EC29F0116E566AA2
:1038A000010E23EC2BF0566A2E0E23EC2BF011A008
:1038B00023D0010E0401976F16500F24176E10507D
:1038C000175C07E2020E07EC29F0186E6AEC15F09F
:1038D000F6D70B0E07EC29F0146E15501426143889
:1038E000E8461F0B16261450070B156E1650100DC8
:1038F000F3501524136E88D716500F24176E1050EE
:10390000175CD8B01200020E07EC29F0186E040103
:103910006AEC15F0F4D74DD0190E9E6F240E47D0E7
:10392000AD0E9E6FB00E43D0BF0E9E6FC10E3FD046
:103930007F0E9E6F840E3BD0B30E9E6FB60E37D0B7
:103940002F0E9E6F390E33D0430E9E6F4B0E2FD02D
:10395000910E9E6F950E2BD05F0E9E6F650E27D039
:10396000A10E9E6FA40E23D0B90E9E6FBC0E1FD069
:10397000530E9E6F590E1BD06B0E9E6F700E17D09C
:10398000750E9E6F7A0E13D0010E9E6F0D0E0FD026
:10399000890E9E6F8D0E0BD0A70E9E6FAA0E07D0BC
:1039A000990E9E6F9D0E03D0C30E9E6FC50EA16F24
:1039B00029D08651010AB0E0030AB2E0010AB4E05E
:1039C000070AB6E0010AB8E0030ABAE0010ABCE05F
:1039D0000F0ABEE0010AC0E0030AC2E0060AC4E022
:1039E000010AC6E0030AC8E0010AB2E01E0ACCE000
:1039F000030ACEE0010AD0E0070AC2E0010AD0E0E3
:103A0000030AD2E09EC4F6FF0F0EF76E000EF86EAA
:103A10000800F5CFCBFF9E2B8BB08BA207D00A0EF0
:103A2000496ECB50CAEC2DF0030D06D00A0E496E3C
:103A3000CB50CAEC2DF0070DF3CFBCFFA1C4F6FFAD
:103A40000F0EF76E000EF86E0800F5CF21F4A12BD3
:103A50002151FA0FB16FCA848B861200010E566E87
:103A6000090E23EC2BF00401A26708D0010EA26F0F
:103A70000A0E566E020E23EC2BF006D0A26B0B0E34
:103A8000566E020E23EC2BF0566A020E23EC2BF03E
:103A9000566A020E23EC2BF0CA0E566E020E23EC71
:103AA0002BF0010E566E020E23EC2BF0010E566E1B
:103AB000020E23EC2BF0080E566E020E23EC2BF0B8
:103AC0001E0E566E010E23EC2BF00A0E566E000EE3
:103AD000576A56EC30F0040E07EC29F0136E0A0E0C
:103AE00007EC29F00401916F566A010E23EC2BF0CC
:103AF000566A2E0E23EC2BF013500C0AD8B491B753
:103B0000000C146A1350145C0EE2020E07EC29F04C
:103B1000556E150E1424E96EEA6A000EEA2255C0AD
:103B2000EFFF142AEFD713C055F0FE0E5526150EE1
:103B30005524E96EEA6A000EEA22900EEF62000C4C
:103B400013C055F0FF0E5526150E5524E96EEA6A8E
:103B5000000EEA22EF5019E1D96AD9CF55F0020ED2
:103B60005526150E5524E96EEA6A000EEA22040174
:103B7000420ED924E16EE26A040EE222EFCFE7FFA3
:103B8000D92A070ED964E9D7010C000CDD0E4B6E63
:103B9000150E496E000E4A6AE5EC2DF0DD0E0001AF
:103BA000606F110E4B6E160E496E000E4A6AE5EC00
:103BB0002DF0110EE8CF61F0060E4B6E120E496E1D
:103BC000000E4A6AE5EC2DF0060EE8CF64F04B6A71
:103BD000100E496E000E4A6AE5EC2DF0000EE8CF9B
:103BE00062F04B6A110E496E000E4A6AE5EC2DF048
:103BF000000EE8CF63F0010E4B6E130E496E000EFF
:103C00004A6AE5EC2DF0010EE8CF65F03A0E4B6EF6
:103C1000140E496E000E4A6AE5EC2DF03A0EE8CF1C
:103C200066F00C0E116E126A690E0F6E000E106AAD
:103C300082EC2FF0010EE8CF69F0060EE8CF6AF0B3
:103C40000C0EE8CF6BF0020EE8CF6CF0D96A690E6B
:103C5000D924E96EEA6A000EEA22EF504B6E200E7C
:103C6000D924496E4A6A000E4A22E5EC2DF0D92A81
:103C70000B0ED964ECD7CAEC2AF0AA0E4B6EFD0EDF
:103C8000496E030E4A6EE5EC2DF0550E4B6EFE0E9E
:103C9000496E030E4A6EE5EC2DF0A50E4B6E496899
:103CA000030E4A6EE5EF2DF0150E0C6E000E0D6A38
:103CB00061EC30F00001606F160E0C6E000E0D6AA4
:103CC00061EC30F00A6E0AC061F0100E0C6E000E4E
:103CD0000D6A61EC30F00A6E0AC062F0110E0C6ED3
:103CE000000E0D6A61EC30F00A6E0AC063F0120E2D
:103CF0000C6E000E0D6A61EC30F00A6E0AC064F0C2
:103D0000130E0C6E000E0D6A61EC30F00A6E0AC0E4
:103D100065F0140E0C6E000E0D6A61EC30F00A6E48
:103D20000AC066F0D96A690ED924E96EEA6A000E03
:103D3000EA22200ED9240C6E0D6A000E0D2261ECD1
:103D400030F0EF6ED92A0B0ED964EDD7170E0C6E3A
:103D5000000E0D6A61EC30F00A6E0AC068F0180EB1
:103D60000C6E000E0D6A61EC30F00A6E0AC067F04E
:103D7000D96AE16AD9500D0D750EF3240A6E000E52
:103D8000F4200B6EE1500A24E96E000E0B20EA6E5F
:103D9000D9500D0DE150F326000EF422300EF3241D
:103DA0000C6E000EF4200D6E61EC30F0EF6EE12A27
:103DB0000C0EE164DFD7D92A450ED964DAD7450C59
:103DC000010E566E090E23EC2BF0A26708D0010EEF
:103DD000A26F0A0E566E020E23EC2BF006D0A26BD9
:103DE0000B0E566E020E23EC2BF0566A020E23ECDD
:103DF0002BF0566A020E23EC2BF0A40E566E020E28
:103E000023EC2BF0040E566E020E23EC2BF0566AB8
:103E1000020E23EC2BF0070E566E020E23EC2BF055
:103E2000D40E566E020E23EC2BF0100E566E020EC0
:103E300023EC2BF0566A020E23EC2BF0566A020E8E
:103E400023EC2BF0030E566E020E23EC2BF0566A79
:103E5000020E23EC2BF0010E566E020E23EC2BF01B
:103E6000566A020E23EC2BF01E0E566E010E23EC4A
:103E70002BF00F0E566E000E576A56EC30F0040E03
:103E800007EC29F0136E0A0E07EC29F00401916F7C
:103E9000566A010E23EC2BF0566A2E0E23EC2BF003
:103EA000030E1364000C91B7000C020E07EC29F00E
:103EB000020E07EC29F0020E07EC29F06F0A01E16F
:103EC000010C000CF29ED08CFA0E566E000E576A52
:103ED00056EC30F0FA0E566E000E576A56EC30F083
:103EE0007BEC24F07FEC30F0FA0E566E000E576A31
:103EF00056EC30F0FA0E566E000E576A56EC30F063
:103F0000D08EF28CF28E85A80DD0C80E566E000EA3
:103F1000576A56EC30F085A805D0140E0401296FBD
:103F2000C0EC11F08C868B988B9A20EC1BF0010E64
:103F3000D16ED0A60AD0496E4BEC30F0040000ECF4
:103F40002FF0D0EC24F08967F9D70401886B020EBA
:103F5000296F77EC2DF00BC003F00CC004F0110EAC
:103F60000401876F9D6B966BD0A622D01B0520E0C5
:103F7000855103E01DEC2DF01BD03F0E00EE66F0E6
:103F8000EF620CD0010E8A6F00EE65F0EF6203D095
:103F90003CEC2FF00DD03CEC2DF00AD0010E00EEE1
:103FA00065F0EF6203D0C0EC2EF002D01DEC2DF0D6
:103FB000040000EC2FF0FCEC07F0B1EC2FF098ECD3
:103FC00021F0F6D769D081A61200110E986F106B00
:103FD000116B010E0F6F010C81A666D0104B112BD7
:103FE0000A0E105D000E1159D8A01200020E0F6FBC
:103FF000020C81A628D0104B112B1105F40ED8B459
:104000001019D8A41200030E0F6F1B6717D000EE13
:1040100062F0EF50010E0EE1E8CF62F04B6EFEEC65
:1040200014F0E5EC2DF0010E496E0F0E4BEC30F064
:10403000C96B1200496E070E4BEF30F0010E496E4E
:10404000040E4BEF30F0010E00EE62F0EF6211D083
:1040500085670FD0000EE8CF62F04B6AFEEC14F0DB
:10406000E5EC2DF0010E496E040E4BEC30F00F6BB9
:1040700012009851110AD8A4DEEC2FF09869220E94
:104080009F6F500ECFEC2FF061EC2EF004010F6B00
:10409000120081B6120008D00F5195E0010A9CE091
:1040A000030AA7E0010AF5E00F6B1200E8CFF4FF66
:1040B000080E566E1A0E23EC2BF0566A0F0E23ECE8
:1040C0002BF04F0E566E220E23EC2BF0010E566E87
:1040D000090E23EC2BF0F4CF56F0020E23EC2BF05C
:1040E000700E566E020E23EC2BF00FC0D9FF10504D
:1040F000D95C0EE20401420ED924E96EEA6A040E8C
:10410000EA22EF50566E020E23EC2BF0D92AEFD79D
:104110001E0E566E010E23EC2BF0020E566E000E94
:10412000576A56EC30F0040E07EC29F00401B46F26
:104130000A0E07EC29F0916F020E07EC29F0936F3D
:10414000020E07EC29F0020E07EC29F0240E93175B
:10415000566A010E23EC2BF0566A2E0E23EC2BF040
:10416000B451030A13E191510A0B10E1936701D096
:10417000010C9351040A01E1020C9351240A01E15C
:10418000020C9351200A01E1030C000C000C9490E6
:104190009492949494968651020A03E18B808B82C8
:1041A000010CFF0E035C0F0E045801E3000C8605A2
:1041B00012E08651060A0FE08651090A0CE086518A
:1041C0000A0A09E08651070A06E08651040A03E05C
:1041D0008651150A03E18B808B82010C8851B90A44
:1041E0000FE086510C0A0CE086510D0A09E0865159
:1041F000120A06E086510F0A03E08651160A03E10F
:104200008B908B82010C050E00EE64F0EF6204D0FF
:10421000A6EC30F0896B000C010E00EE64F0EF624A
:1042200003D08B908B92010C060E00EE64F0EF62CF
:1042300003D08B908B82010C0C0E00EE64F0EF62C9
:1042400003D08B808B82010C060E4B6E120E496ED2
:10425000000E4A6AE5EC2DF0060EE8CF64F08B9074
:104260008B82010CC70502E111EF30F08CB6120011
:1042700092EC2FF0496E49500D0AD8B412004ED07E
:10428000496601D01200110E986F49C004F4056B05
:10429000066B010E036F010C0451491802E0036B19
:1042A0001200054B062B040E055D000E0659D8A022
:1042B0001200020E036F49C007F49851110AD8A4E6
:1042C000DEEC2FF09869220E9F6F4950040A03E13B
:1042D000450ECFEF2FF04950090A03E1460ECFEF0C
:1042E0002FF0480ECFEF2FF007514918D8B4120025
:1042F000056B066B030E036F030C495004EE07F0C9
:10430000EF6203D0020E036F020C054B062B040E66
:10431000055D000E0659D8B0036B12000351B0E0E2
:10432000010ABAE0030AE0E0010AE7E0036B1200C9
:104330002951D8A412002451D8A412002A51D8A47B
:1043400012008851B20AD8A412008751110AD8A4C9
:1043500012008951D8A41200A051050AD8A4120055
:104360008551D8A41200A551D8A412000C5104E024
:104370000C51040AD8A412000F5104E00F51030A93
:10438000D8A412001251D8A412001451D8A41200BB
:10439000180504E01851030AD8A412008C868B98E3
:1043A0008B9A926B16EC26F0B0EC30F0B0EC26F065
:1043B000CD90F180F08CF08EF182F18CF19881A695
:1043C00002D0F19601D0F186F288F088F08AF28668
:1043D000C76BD16A0300F296F2987BEC24F0010ED1
:1043E000D16EB30E0401886F0A0E296F77EC2DF0A1
:1043F0000BC003F00CC004F01200190E566E000E34
:10440000576A56EC30F0740E035C090E045804E34E
:10441000280E0401236F280CF90E035C080E0458C3
:1044200004E3280E0401236F280CA90E035C080E78
:10443000045804E32D0E0401236F2D0C2D0E035C94
:10444000080E045804E32D0E0401236F2D0CDB0E1F
:10445000035C070E045804E3300E0401236F300C94
:10446000640E035C070E045804E3320E0401236F4C
:10447000320C0B0E035C070E045804E3320E0401E9
:10448000236F320CE70E035C060E045804E3350E6E
:104490000401236F350C980E035C060E045804E3E8
:1044A000370E0401236F370C750E035C060E04589B
:1044B00004E3390E0401236F390C3C0E0401236F11
:1044C0003C0CF36AF46A006605D0016603D002660C
:1044D00001D0000C002805E1012803E1022801E1D8
:1044E000000C00B2F38000B6F38200BAF38400BE81
:1044F000F38601B2F38801B6F38A01BAF38C01BEE8
:10450000F38E02B2F48002B6F48202BAF48402BEE0
:10451000F486F304F41001E1010CF350020AF410E4
:1045200001E1020CF350040AF41001E1030CF35012
:10453000080AF41001E1040CF350100AF41001E130
:10454000050CF350200AF41001E1060CF350400A68
:10455000F41001E1070CF350800AF41001E1080C9B
:10456000F404F31001E1090CF450020AF31001E124
:104570000A0CF450040AF31001E10B0CF450080A81
:10458000F31001E10C0C0D0CFF0E035C0F0E045830
:1045900002E3C0EF2FF0010E00EE62F0EF620AD0EE
:1045A0000401856707D00A0E496E020E4BEC30F00D
:1045B0009BEC30F0360E035C070E045827E2040132
:1045C000856724D0010E496E060E4BEC30F0320E9A
:1045D000256F496AF00E4A6E000E4B6A4C6A17EC62
:1045E0002EF0040025670BD0320E256F8CB602D05A
:1045F0008C8605D0496A87EC15F017EC2EF000EC9C
:104600002FF0D0EC24F08967ECD78C86496A87ECD0
:1046100015F017EC2EF05A0E0401296F1B670AD013
:104620009F51220AD8A4DEEC2FF09F69330EC66F8B
:10463000380E8C6FB80E886FF098B80C0C6A0D6A43
:104640000E6A0F6A500E106E080E116E126A136A0F
:10465000880E146E040E156E166A176A240E186EF4
:10466000020E196E1A6A1B6A030E1C6E010E1D6E75
:104670001E6A1F6A0C680F0E0D6E0E6A0F6AE16AE1
:10468000000E0C10496EF00E0D104A6E000E0E104A
:104690004B6E000E0F104C6E17EC2EF0640E566E23
:1046A000000E576A56EC30F0E150040D100EF32462
:1046B000E96EEA6A000EEA22EE500C5EEE500D5AE8
:1046C000EE500E5AED500F5AE12A030EE164D8D78E
:1046D000000E496A4A6A4B6A4C6A17EC2EF0640E67
:1046E000566E000E576A56EC30F08C861200F36A54
:1046F000F46A006605D0016603D0026601D012009C
:10470000002805E10128D8B40228D8B412000050CE
:10471000030B030AD8B4F38000500C0B0C0AD8B476
:10472000F3820050300B300AD8B4F3840050C00B31
:10473000C00AD8B4F3860150030B030AD8B4F38837
:1047400001500C0B0C0AD8B4F38A0150300B300A1C
:10475000D8B4F38C0150C00BC00AD8B4F38E025009
:10476000030B030AD8B4F48002500C0B0C0AD8B423
:10477000F4820250300B300AD8B4F4840250C00BDB
:10478000C00AD8B4F486F450F310D8B41200B52B94
:10479000130EB565130CC76BC46B540ECFEF2FF01F
:1047A0000C6A0D6A0E6A0F6A500E106E080E116EBA
:1047B000126A136A880E146E040E156E166A176A52
:1047C000240E186E020E196E1A6A1B6A030E1C6EF6
:1047D000010E1D6E1E6A1F6A0C680F0E0D6E000E14
:1047E0000E6A0F6AE16A0CC049F00DC04AF00EC0B3
:1047F0004BF00FC04CF017EC2EF0640E566E000E0E
:10480000576A56EC30F0E150040D100EF324E96EB7
:10481000EA6A000EEA22EE500C5EEE500D5AEE509F
:104820000E5AED500F5AE12A030EE164DCD7000E58
:10483000496A4A6A4B6A4C6A17EC2EF0640E566E4F
:10484000000E576A56EC30F08C861200F098040186
:10485000C76B010EC46F8C8A8C8C8C8E020E566EC8
:10486000000E576A56EC30F08C9E8C988EEC30F02F
:10487000090E0401516F0F0E526F020E4A6EF00EB8
:1048800091EC2EF08EEC30F0090E0401516F070E02
:10489000526F020E4A6EF00E91EC2EF0020E516F26
:1048A000990E526F536F546F556F566F576FA10E1D
:1048B000586F080E4A6EF00E91EC2EF00A0E516FF2
:1048C000526B536B546B556B050E4A6EF00E91ECA8
:1048D0002EF00C0E516F526B536B030E4A6EF00E9E
:1048E00091EC2EF00A0E516F526B536B030E4A6E11
:1048F000F00E91EF2EF00F01256B246B236B92903D
:1049000089909282929489949296899692988998A5
:10491000929A899A93809382938493869388938AB8
:10492000939C8A9C939E8A9E94908B9094928B9257
:1049300094948B9494968B9694988B98949A8B9A43
:10494000948C948E95908C9095928C9295948C9456
:1049500095968C8695988C98959A8C9A959C8C9C1B
:10496000959E8C9E96908D90968296948D94969618
:104970008D8696988D88969A8D8A968C968E97922B
:104980008E92978497869788978A978C979E8E9E0B
:1049900098908F909882988498968F969888120015
:1049A00046D08551130A01E102D09A0505E1010EB6
:1049B000496E020E4BEF30F08851C00A04E0885176
:1049C000C10AD8A41200010E496E0A0E4BEF30F056
:1049D000C7EC20F0000902E1F8EF2FF087EC30F08F
:1049E0008BEC1CF0020E896F8651020A0DE0865195
:1049F0000A0A0AE086510D0A07E08651150A04E00A
:104A0000B151216101D08B962151D8A41200030E1F
:104A1000896FF7EC2AF0216707D0B307B36702D09C
:104A2000F8EF2FF08BEC1CF0020E896F020C0401E2
:104A30008951B7E0010ACCE0030AD6E0010AE9E0B7
:104A4000A6EC30F0896B1200740E035C090E04585A
:104A500003E3280E236F280CF90E035C080E04589C
:104A600003E3280E236F280CA90E035C080E0458DC
:104A70002D0E02E3236F2D0C035C080E045803E394
:104A80002D0E236F2D0CDB0E035C070E045803E381
:104A9000300E236F300C640E035C070E045803E3E2
:104AA000320E236F320C0B0E035C070E045803E327
:104AB000320E236F320CE70E035C060E045803E33C
:104AC000350E236F350C980E035C060E045803E375
:104AD000370E236F370C750E035C060E045803E384
:104AE000390E236F390C3C0E236F3C0CF2A448D0D6
:104AF000F294D90ED66ED76A04011F2B944B952BD6
:104B00002051D8A420072151D8A42107010E1FA1AC
:104B10000BD01D6F2251D8A422072551D8A42507F8
:104B200023510CE023070AD01E6F2451D8A4240778
:104B30002651D8A426072751D8A427071F51140AA5
:104B40001FE11F6B2951D8A429072851D8A4280791
:104B50002A51D8A42A072B51D8A42B072C51D8A40A
:104B60002C072D51D8A42D072F512E1103E02E070D
:104B7000D8A02F073151301103E03007D8A03107FA
:104B80005CC0E0FF5BC0E8FF5AC0D8FF10009890FF
:104B90008F908EEC30F000016051DD0A04E1010ECF
:104BA00004011B6F010C6051AA0A0DE185AA06D011
:104BB00085BC10D0010E04011B6F0DD085AC0AD04E
:104BC00004011B6B08D085AA03D085ACF9D702D0AD
:104BD00085BCF0D700F004011C511B1923E087515C
:104BE000110A20E11B051EE1010E00EE62F0EF62EA
:104BF0000AD0000EE8CF62F04B6A100E496E000E2C
:104C00004A6AE5EC2DF0010E00EE63F0EF620AD087
:104C1000000EE8CF63F04B6A110E496E000E4A6A2F
:104C2000E5EC2DF01BC41CF4988012008C8A8C8C4F
:104C30008C8E020E566E000E576A56EC30F08C9E2B
:104C40008C988EEC30F0090E0401516F0F0E526FEC
:104C5000020E4A6EF00E91EC2EF08EEC30F0090E42
:104C60000401516F070E526F020E4A6EF00E91EC66
:104C70002EF0020E516FAA0E526F536F546F556F84
:104C8000566F576F070E4A6EF00E91EC2EF0080E1D
:104C9000516F180E526F020E4A6EF00E91EC2EF00C
:104CA0000C0E516F526B536B030E4A6EF00E91EC6B
:104CB0002EF00A0E516F526B536B030E4A6EF00EBC
:104CC00091EC2EF0F0981200E8CFD9FF4D6A4E6AB1
:104CD0004F6A506AD90403E1400E98EC15F0D950A0
:104CE000020A03E1100E98EC15F0D950030A04E112
:104CF000D890080E93EC15F0D950040A03E1080E81
:104D000098EC15F0D950050A03E1800E98EC15F0E7
:104D1000D950060A04E1D890040E93EC15F0D9504E
:104D2000070A03E1040E98EC15F0D950080A03E1D4
:104D3000200E98EC15F0D950090A04E1D890020E23
:104D400093EC15F0D96603D0020E98EC15F04DC027
:104D500049F04EC04AF04FC04BF050C04CF012002A
:104D6000929089909292899292948994929689963F
:104D700092988998929A899A938093829384938641
:104D80009388938A939C8A9C939E8A9E94908B90FE
:104D900094928B9294948B9494968B9694988B98EF
:104DA000949A8B9A948C948E95809582958495860E
:104DB0009588958A958C959E8C9E96908D909692CE
:104DC0008D9296948D9496968D9696988D98969AA7
:104DD0008D9A968C968E97928E92978497869788C6
:104DE000978A978C979E8E9E9880988298849896A2
:104DF0008F96988812003DD085A812000D6B0E6B1F
:104E0000010E0C6F010C85A810D00D4B0E2B0D510F
:104E10000A0A0E11D8A412009A0502E1040E01D06C
:104E2000020E0C6F600ECFEF2FF00C6B120085A8F6
:104E3000FCD70D4B0E2B0E05F40ED8B40D19D8A4CB
:104E40001200030E0C6F610ECFEF2FF085A8EDD787
:104E50000D4B0E2B0E51030AE80ED8B40D19D8A431
:104E60001200040E0C6F630ECFEF2FF085B8120006
:104E7000DCD70C51C1E0010AC6E0030AD8E0010A00
:104E8000E5E0070AF3E0D1D79C673DD0856B3BD0C6
:104E90001200286713D01B670ED09F51220AD8A496
:104EA000DEEC2FF09F69330EC66F380E8C6F090E43
:104EB000A06FC0EC2FF0270E856F270C256712001E
:104EC000320E256F8BB813D08B888851B40AD8B4B2
:104ED0001200496AF00E4A6E000E4B6A4C6A17EFD8
:104EE0002EF025671200320E256F8BA8EDD78B9818
:104EF0008851B40AD8A48C8612001A05D8A41200CE
:104F00009C6B856B12008551C3E0130AC2E0340A22
:104F1000E8E0470AF2E0856B1200E8CFD9FFD90438
:104F200002E1BF0E8117D950060A02E1EF0E811788
:104F3000D9500C0A02E1F70E8217D950020A02E199
:104F4000F70E8117D950070A02E17F0E8117D95059
:104F50000B0A02E1FB0E8217D950030A02E1FB0E95
:104F60008117D950080A02E1DF0E8117D9500A0AC9
:104F700002E1FD0E8217D950050A02E1FD0E8117EC
:104F8000D950090A02E1FE0E8217D950040A03E142
:104F9000FE0E8117FF0E81C40BF082C40CF083C497
:104FA0000DF084C40EF01200C92B040EC96534D074
:104FB000855114E0C96B8C868B988B9A010E496ED3
:104FC000040E4BEC30F09BEC30F0090EA06F16ECA9
:104FD00026F0B0EC30F0C0EC2FF0010CC96B8C86E1
:104FE0008B988B9A010E496E040E4BEC30F09BECC3
:104FF00030F0090EA06F16EC26F0B0EC30F0F29E07
:10500000640E2E6F2F6BF28EC00E886F010E496EEC
:105010000A0E4BEC30F0010C8C868B988B9A010EAB
:10502000496E040E4BEC30F09BEC30F0000CE8CFF6
:10503000E9FF010E496E030E4BEC30F08851B90ABE
:10504000D8A48A0519E1E9503EEC29F064EC26F079
:105050004950FF08496E0F0EC9EC15F017EC2EF001
:105060000A0E266F03D00400D0EC24F02667FBD78D
:1050700049680F0E4A6E17D0E9503EEC29F064ECF7
:1050800026F04950FF08496EFF0EC9EC15F017ECE9
:105090002EF00A0E266F03D00400D0EC24F0266711
:1050A000FBD749684A68000E4B6A4C6A17EF2EF02E
:1050B0009C0505E0FF0E035C0F0E045802E3C0EFF1
:1050C0002FF0360E035C070E045824E2010E496EE1
:1050D000060E4BEC30F0320E256F496AF00E4A6E28
:1050E000000E4B6A4C6A17EC2EF0040025670BD0BB
:1050F000320E256F8CB602D08C8605D0496A8DECB5
:1051000015F017EC2EF000EC2FF0D0EC24F08967AE
:10511000ECD78C86496A8DEC15F017EC2EF05A0E00
:10512000296F270E8C6FB70E886FF098B70C2FD0B1
:1051300085B41200110E986F156B010E146F010CDF
:1051400085A402D0146B1200152B04EE15F0310E5D
:10515000EF64310C020E146F020C85A414D004EE1F
:1051600015F0310EEF641AD0C80E156117D09851A2
:10517000110AD8A4DEEC2FF09869220E9F6F510E11
:10518000CFEC2FF00BD01529D8A4152B1200040159
:105190001451CEE0010AD4E0030ADFE0146B1200E0
:1051A0005B0E566E110E23EC2BF03F0E566E120E58
:1051B00023EC2BF0010E566E190E23EC2BF0180E7B
:1051C000566E1C0E23EC2BF0010E566E140E23ECC3
:1051D0002BF0080E566E1A0E23EC2BF0810E566E35
:1051E0001E0E23EC2BF0060E566E210E23EC2BF038
:1051F000070E566E0F0E23EC2BF0030E566E220E8A
:1052000023EC2BF0050E566E576A56EF30F0E8CFC0
:10521000E9FFE16AE950E9248009E96E8D96F46AB4
:10522000E9AE02D08D8401D08D94D890E9368D807E
:10523000A1EC30F08D90F42A070EF464F1D7A1ECC4
:1052400030F0F36AD96AF3AE02D08D8401D08D9428
:10525000D890F336D890E13684A202D0E18001D014
:10526000E1908D80A1EC30F08D90A1EC30F0D92A46
:10527000070ED964E8D78D86E1501200E8CFE1FF30
:105280000A0ED96EE150050AD8B4D96AE10402E1E8
:10529000010ED96EE150060A02E1020ED96EE1500C
:1052A0000C0A02E1030ED96EE150020A02E1040E7B
:1052B000D96EE150070A02E1050ED96EE1500B0AE2
:1052C00002E1060ED96EE150030A02E1070ED96E23
:1052D000E150080A02E1080ED96EE1500A0A02E123
:1052E000090ED96ED95012000F0E566E220E23EC05
:1052F0002BF0010E566E090E23EC2BF0E00E566ECD
:10530000020E23EC2BF0700E566E020E23EC2BF0E7
:105310001E0E566E010E23EC2BF0020E566E000E82
:10532000576A56EC30F0040E07EC29F0136E0A0EA3
:1053300007EC29F00401916F566A010E23EC2BF063
:10534000566A2E0E23EC2BF01350D8A491B7000C04
:10535000A26B010C070E566E0F0E23EC2BF0030E02
:10536000566E220E23EC2BF0010E566E090E23EC26
:105370002BF0260E566E020E23EC2BF01E0E566EF0
:10538000010E23EC2BF0020E566E000E576A56ECFF
:1053900030F0040E07EC29F0106E0A0E07EC29F02D
:1053A0000F6E566A010E23EC2BF0566A2E0E23EC7C
:1053B0002BF01050020AD8B40FB2000C010C030EEF
:1053C0000764000C0D0E0760000C0C0E136E690EC6
:1053D000116E126A5EEC15F0EBEC2EF0000901E0A4
:1053E000020CD96AD9500D0D750EF324E96E000E2A
:1053F000F420EA6E010EEF6211D00C0E136ED9503C
:105400000D0D760EF324116E000EF420126E5EEC7C
:1054100015F0EBEC2EF0000901E0010CD92A450E45
:10542000D964E0D7000CE16A10AE06D00F6C101EF4
:10543000D8B0102A010EE16E12AE04D0116C121E0B
:10544000D8B0122A1250111017E0010ED96E12BEF8
:1054500005D0D89011361236D92AF9D711500F5CE1
:105460001250105804E311500F5E1250105AD89089
:1054700012321132D92EF2D7E15004E00F6C101E17
:10548000D8B0102A1200070410E132513EEC29F086
:10549000086E000E0864000C460E086401D0000C73
:1054A000085055EC15F01BE0010C0750020A17E1FB
:1054B00033513EEC29F00C6E32513EEC29F00A0DCE
:1054C000F3500C24086E000E0864000C460E0864AD
:1054D00001D0000C085055EC15F001E0010C000C57
:1054E000C86706D0010E116E000E126A76EC30F01D
:1054F0006D0E156E4E0E166EC60E176E410E186EA0
:105500008DC411F08EC412F08FC413F090C414F047
:10551000C6EC2BF0390E11248D6F300E12208E6FD9
:10552000000E13208F6F000E1420906F04018F5116
:105530000F6E7F0E9015106E1200070410E13251AD
:105540003EEC29F0086E000E0864000C460E08645C
:1055500001D0000C08504CEC15F01BE1010C075079
:10556000020A17E133513EEC29F00C6E32513EEC49
:1055700029F00A0DF3500C24086E000E0864000C8C
:10558000460E086401D0000C08504CEC15F001E107
:10559000010C000C4B6A170E496E000E4A6AE5ECCE
:1055A0002DF0000EE8CF68F04B6A180E496E000E21
:1055B0004A6AE5EC2DF0000EE8CF67F0D96A4B6A35
:1055C000D9500D0D300EF324496E000EF4204A6EB2
:1055D000E5EC2DF0D92A450ED964F1D78E0E116E67
:1055E000030E126E750E0F6E106A82EF2FF09EC4BE
:1055F000F6FF0F0EF76E000EF86E0800F5CFCBFF2A
:105600009E2B8BB08BA207D00A0E496ECB50CAECF2
:105610002DF0030D06D00A0E496ECB50CAEC2DF0CA
:10562000070DF3CFBCFFA1C4F6FF0F0EF76E000EFF
:10563000F86E0800F5CF21F4A12B2151FA0FB16FBC
:10564000CA848B861200E8CFE1FFE150E1247F0B92
:10565000E16E8D96E96AE1AE02D08D8401D08D9421
:10566000D890E1368D80A1EC30F08D90E92A070EBC
:10567000E964F1D7A1EC30F0F36A56AE02D08D8424
:1056800001D08D94D89056368D80A1EC30F08D905D
:10569000F32A070EF364F1D78D86070C00EE67F04E
:1056A000EF5001E1000CD96AD9500D0D750EF324AD
:1056B000E96E000EF420EA6E020EEF6214D00A0EBC
:1056C000136E0401320E116E040E126ED9500D0DC0
:1056D000760EF3240F6E000EF420106EEBEC2EF01D
:1056E000000901E0010CD92A450ED964DDD7000C70
:1056F000E8CFF3FFE16A958AA1EC30F0E96AD8902F
:10570000E136A1EC30F08C8CA1EC30F083BAE18072
:105710008C9CE92A070EE964F2D7A1EC30F0F3047F
:1057200002E18C9A01D08C8A959AA1EC30F08C8C95
:10573000A1EC30F08C9CA1EC30F0E150120004019F
:105740009A6B010E00EE63F0EF620AD0000EE8CF14
:1057500063F04B6A110E496E000E4A6AE5EC2DF0BB
:10576000010E496E150E4BEC30F09BEC30F016EC50
:1057700026F0B0EC30F08C861B0506E11A67C0EF0E
:105780002FF0460E40EF30F0C0EF2FF0196A1A6A82
:105790001B6A1C6A11A008D01550192616501A222F
:1057A00017501B2218501C22D89015361636173663
:1057B0001836D8901432133212321132145011109C
:1057C00012101310E7E119C011F01AC012F01BC03B
:1057D00013F01CC014F01200050E0F6E06D074EC0E
:1057E00029F0126E120403E00F060F66F8D7116A53
:1057F000E0EC1EF0106E105004E1112A030E11644B
:10580000F7D7106601D0000C116A2EEC1DF0106E57
:10581000105001E0010C112A030E1164F6D7106636
:10582000030C000C070422E132510B0A0AE13A0E84
:10583000E8CF66F066C04BF0A9EC15F0E5EC2DF072
:10584000010C3251020A12E100EE67F0EF500EE057
:1058500000EE68F0EF500AE03F0EE8CF66F066C059
:105860004BF0A9EC15F0E5EC2DF0010C000C075005
:105870000A0A1EE132051CE13351020A19E13451D2
:10588000030A16E13551050A13E13651080A10E101
:105890003751070A0DE13851060A0AE139510C0A5D
:1058A00007E13A510B0A04E13B510A0A01E1010CFC
:1058B000000C010E496E0C0E4BEC30F0076A100E16
:1058C000116E126A320E0F6E040E106E82EC2FF003
:1058D000640E0401296F010E8B6FB90E886FC36BC4
:1058E00049680F0E4A6E000E4B6A4C6A17EC2EF098
:1058F00026EF24F0010E566E090E23EC2BF0500E0D
:10590000566E020E23EC2BF0566A020E23EC2BF09F
:105910001E0E566E010E23EC2BF0020E566E000E7C
:10592000576A56EC30F0566A010E23EC2BF0566A9B
:105930002E0E23EF2BF08D8A8D868D9029EC30F082
:1059400056683F0E23EC2BF08D9829EC30F08D88B3
:1059500029EC30F08D9829EC30F0180E566E1C0EA4
:1059600023EC2BF0850E566E1F0E23EC2BF05B0EF6
:10597000566E110E23EF2BF0E8CFE9FFE16AA1ECA0
:1059800030F0E9AE02D08C8A01D08C9AA1EC30F0D4
:105990008C8CA1EC30F08C9CD890E936E12A070E73
:1059A000E164EDD7A1EC30F08C9AA1EC30F08C8C56
:1059B000A1EC30F08C9CA1EF30F0010ED16EF2B66C
:1059C000F2A003D081CF81FFF290F2B8F2A201D011
:1059D000F292F0B6F0A001D0F090F0B8F0A208D0AA
:1059E000F092F098010E0401C76FB56B010EC46F01
:1059F000F0BAF0A41100F094110007041DE10401B5
:105A00003251070A19E1110E00EE61F0EF620AD07F
:105A1000220EE8CF61F061C04BF003EC15F0E5EC2D
:105A20002DF0010C110EE8CF61F061C04BF003ECDA
:105A300015F0E5EC2DF0010C000C076A100E116E4C
:105A4000126A320E0F6E040E106E82EC2FF0320EC0
:105A50000401296F49684A68000E4B6A4C6A17ECCA
:105A60002EF0060EA06FB40E886F010E496E030E65
:105A70004BEC30F026EF24F0076A100E116E126A1C
:105A8000320E0F6E040E106E82EC2FF0320E0401F7
:105A9000296FB40E886F010E496E030E4BEC30F087
:105AA00049680F0E4A6E000E4B6A4C6A17EC2EF0D6
:105AB00026EF24F007041AE132510A0A0AE1000E27
:105AC000E8CF65F065C04BF09EEC15F0E5EC2DF0ED
:105AD000010C3251030A0AE1010EE8CF65F065C0FE
:105AE0004BF09EEC15F0E5EC2DF0010C000C8E8EC9
:105AF0008EEC30F095EC30F0050E566E000E576AC5
:105B000056EC30F0C282C2B2FED7C3CFF3FFC4CF8F
:105B1000F4FF0F012593C26AC16AC06A8E9EF3CF5B
:105B20000BF0F4CF0CF01200070418E13251050A13
:105B300008E0320506E03251060A03E032510C0A51
:105B40000DE100EE64F032C4EFFF64C04BF0120EC2
:105B5000496E000E4A6AE5EC2DF0010C000C125063
:105B6000111017E0010ED96E12BE05D0D890113673
:105B70001236D92AF9D711500F5C1250105804E38D
:105B800011500F5E1250105AD89012321132D92E85
:105B9000F2D71200E8CFE9FFD96A495014E0010EAC
:105BA000E16ED89049BE04D04936E12AFAD7D890A0
:105BB000D9364950E95C03E34950E95ED980D89071
:105BC0004932E12EF4D7D95012007FB2FED74A50A5
:105BD000636E49C062FF4BC061FF3F0E7F16D890D5
:105BE000F2BED880F29E7F84550E7E6EAA0E7E6E27
:105BF0007F82A6987F94D8B0F28EAA0CA351440A53
:105C0000D8A4DEEC2FF0C30E921600016051BB0A3F
:105C100005E1899489868988899A12006051AA0AC7
:105C2000D8A41200898489968998898A1200D96A31
:105C30004AAE02D08C8001D08C90A1EC30F08C82E6
:105C4000A1EC30F08C92D89049364A364B364C361F
:105C5000D92A0F0ED964ECD78C848C948C960F0CB7
:105C6000A351440AD8A4DEEC2FF0C30E9216000113
:105C70006051BB0A05E1898489968998898A120056
:105C80006051AA0AD8A41200899489868988899AC1
:105C90001200E8CFF3FF006A016A026A05EC30F0F7
:105CA000F350BCEC2CF0010E78EC2BF0006E010EE2
:105CB00078EC2BF0016E000E78EC2BF0026EEBEF1F
:105CC0002FF000016051AA0A05E181AA81A8120003
:105CD000BB0E08D06051BB0AD8B481B8120081AAAB
:105CE0001200AA0E606F4B6E150E496E4A6AE5EF00
:105CF0002DF0D96A9D51961912E0610E9625E96E34
:105D0000EA6A040EEA22EF50D96E610E9625E96E1A
:105D1000EA6A040EEA22EF6A962B1F0E9617D950F4
:105D20001200E8CFF4FF05EC30F0F450BCEC2CF09E
:105D3000F36A4A50F35C0BE2510EF324E96EEA6A0F
:105D4000040EEA22EF50BCEC2CF0F32AF2D7EBEF72
:105D50002FF09A6B010E496E040E4BEC30F09BEC69
:105D600030F016EC26F0B0EC30F08C861B0506E126
:105D70001A67C0EF2FF0460E40EF30F0C0EF2FF063
:105D8000076A100E116E126A320E0F6E040E106E3C
:105D900082EC2FF0B40E0401886F010E9B6F060E8B
:105DA000A06F010EA56F320E296F320C16EC26F093
:105DB000B0EC30F0010E9A6FF29EB80E2E6F0B0E03
:105DC0002F6FF28EC30E886F460E2C6F010E496E38
:105DD000030E4BEF30F01306132811E011C0E9FF5A
:105DE00012C0EAFF114A122AEF50146E0FC0E9FFE9
:105DF00010C0EAFF0F4A102AEF18EDE0000C010C6A
:105E00005DEC1AF0C7EC25F01D5107E01D6BC405D1
:105E1000D8B432EC21F097EC28F01E51D8B412001F
:105E20001E6BFBEC26F04CEF20F0E8CFE1FF080EF4
:105E3000E96ED96AD890E134D934D96ED890E13678
:105E40000F50D95C02E30F50D95EE92EF3D7D95039
:105E5000120010061028D8B412000EC0E9FF0FC0BF
:105E6000EAFF0CC0E1FF0DC0E2FFEFCFE7FF0E4AF3
:105E70000F2A0C4A0D2AEDD7076A100E116E126A0E
:105E8000320E0F6E040E106E82EC2FF0B40E040171
:105E9000886F010E9B6FA56F320E296F320CD96A85
:105EA000200ED9240C6E0D6A000E0D2261EC30F02C
:105EB0000A6E0A2801E0000CD92A0B0ED964F0D72B
:105EC000010C855101E0000C010E00EE62F0EF6262
:105ED000000C496E070E4BEC30F09BEC30F0C0EC40
:105EE0002FF0010C076A100E116E126A0401320EB7
:105EF0000F6E040E106E82EC2FF0320E0401296F2B
:105F00002B6F320C1106D8A012061128D8B4122813
:105F1000D8B412000FC0E9FF10C0EAFFEF6A0F4AC1
:105F2000102AF0D7E16A100E516F010E4A6EF00E82
:105F300091EC2EF0F10E49EC2EF061EC22F0D96ECE
:105F4000D950120004011A5106E01B0501E1010CB1
:105F50001B67050C030C1B0501E1020C1B67060CFB
:105F6000040C04012D6702D03C0E9212D0EC24F0F8
:105F700045EC17F065EC19F05CEC18F044EF27F0F5
:105F800004019B6B8A6B926707D016EC26F0B0EC8D
:105F900030F08C868B988B9AB10E886FB10CE8CF5D
:105FA000E1FF0401610E9D25E96EEA6A040EEA2212
:105FB000E1CFEFFF9D2B1F0E9D171F0C010ED16E21
:105FC00000F000F000F000F000F000F000F000F051
:105FD00000F000F0FFD7A1EC30F08C8CA1EC30F099
:105FE0008C8AA1EC30F08C8CA1EC30F08C8A120001
:105FF000A6EC30F094808B9094828B9294848B9456
:1060000094868B960401896B12008C8AA1EC30F087
:106010008C8CA1EC30F08C9AA1EC30F08C9CA1EF30
:1060200030F0100E516F010E4A6EF00E91EC2EF012
:10603000F10E49EC2EF077EF23F0580E566E110E4C
:1060400023EC2BF0110E566E090E23EC2BF08D88ED
:106050001200B70E586E596A5806D8A0590658282B
:10606000D8B45928D8B41200F7D789988994050E66
:10607000566E000E576A56EC30F08986898A1200F7
:10608000E8CFD9FFD9CF29F4B60E886F16EC26F0E9
:10609000F092F0881200E8CFD9FFF8EC2FF0D9CFBA
:1060A00086F449C0B3F4010E896F010C5606D8A0DE
:1060B00057065628D8B45728D8B4120029EC30F027
:1060C000F5D77FB2FED70D50636E0CC062FF3F0E56
:1060D0007F167F80615012009A6B010E296FB20EFD
:1060E000886F9267B20CF092F088B20C11C08DF4F8
:1060F00012C08EF48F6B906B010EC86F010CD90E1D
:10610000D66ED76AC70ED56EF194F28AC70C0C0E04
:10611000BB6E030ECA6ECC6ACA8412001D0E496E95
:1061200049064928D8B41200FBD7050EC26EC16AD1
:10613000890EC06E890C0400D0EC24F08967FBD76F
:10614000120000F000F000F000F01200BB6ACA6A12
:10615000CC6ACA941200899489968998899A120007
:10616000C46BF092F08812001200FFFFFFFFFFFFE8
:10617000FFFFFFFFFFFFFFFFFFFFFFFFFFFFFFFF2F
:10618000FFFFFFFFFFFFFFFFFFFFFFFFFFFFFFFF1F
:10619000FFFFFFFFFFFFFFFFFFFFFFFFFFFFFFFF0F
:1061A000FFFFFFFFFFFFFFFFFFFFFFFFFFFFFFFFFF
:020000040030CA
:0E00000011C8342A008991000FC00FE00F4094
:020000040020DA
:080000000000000000000000F8
:0200000400F00A
:1000000000000000000000000000000000000000F0
:10001000000006013ADD11000100000000000000B0
:100020000C010201000000000000000000000000C0
:100030000204346C320A54800000000000007C840A
:1000400046B20000000000000000000000000000B8
:1000500000000000000000000000000000000000A0
:100060000000000000000000000000000000000090
:100070000000000000000000000000000000000080
:100080000000000000000000000000000000000070
:1003F00000000000000000000000000000AA55A559
:00000001FF
