:020000040000FA
:1000000014EF00F0FFFFFFFF98EF3CF0FFFFFFFF52
:10001000FFFFFFFFFFFFFFFFD8CF8FF6E8CF90F67F
:10002000E0CF91F663EF32F005EEBBF0C80EF66E4E
:100030000F0EF76E10EE30F02DEC00F000EE00F039
:1000400015EEBBF026EC00F0DEEF2BF0EE6AE5508B
:10005000E150FCE1E250FAE112000900F5CFEEFFB9
:10006000E550E150FAE1E250F8E11200FFFFFFFF36
:10007000FFFFFFFFFFFFFFFFFFFFFFFFFFFFFFFF90
:10008000FFFFFFFFFFFFFFFFFFFFFFFFFFFFFFFF80
:10009000FFFFFFFFFFFFFFFFFFFFFFFFFFFFFFFF70
:1000A000FFFFFFFFFFFFFFFFFFFFFFFFFFFFFFFF60
:100F00000043403E3D3633302E2923210014141473
:100F10001414141414141414003D36302E29252EE4
:100F200030363D002D2D2D2D5A2D2D5A5A5A003078
:100F30003330333040363D480025252525252525ED
:100F4000254B0029303D0029303D0014191E0514A1
:100F5000191E0021292129210020202020200021E4
:100F600000210021002004200420001E29303D0023
:100F700032323232003D30291E0032323232002904
:100F8000302930001E1E1E28003D36300028283231
:100F9000003D3630002828320030003000140414A0
:100FA000003D30003232002930002D2D002E790016
:100FB0005A0A003030002D2D002930002D2D003030
:100FC000003C0030002D0000000800001000000070
:100FD00040000000080000000400000001000000C4
:100FE00002000000000100000002000000040000F8
:100FF00080000000200000004EEF12F00301C951F4
:10100000D8A4120005017C6B726BB10E616FB10C3C
:101010007C517219D8B41200B30E616F0A0E03012D
:10102000C96F0A0C7D6B0FD0110E00EE01F0EF625C
:10103000CDEF3FF005017B67CDEF3FF0140E1AEFC7
:1010400040F0CDEF3FF076EC3FF0010AFAE0030A02
:10105000EBE0010AF6E0070AF4E0010AF2E0030A15
:10106000E3E0CDEF3FF00301C96704D0B10E050105
:10107000616FB10CFFEC3DF0430A01E17FD0070A3C
:1010800001E198D0020A10E00C0A0DE0010A0BE021
:101090001B0A01E19BD0010A01E198D0050A2EE06C
:1010A000340A01E1C0D0120022D005017351D8B436
:1010B0001200736B010EE8CF03F00601426F110EB0
:1010C000406F000E416BB3EC3DF0010E406F120E0D
:1010D0004AEC40F00601406BF00E416F000E426B8F
:1010E000436B7FEC3DF077EC40F094EF3FF076EC13
:1010F0003FF0030ADAE0070AD8E012007351D8A4DF
:10110000120021EC3FF00601006F0005D8B4120078
:101110000050DD0A24E1010E406F040E4AEC40F05D
:1011200094EF3FF001EF34F005014F5102E0A8EFDA
:101130003BF03F0E00EE06F0EF6209D0010E636F48
:1011400000EE05F0EF6212EF3CF0BFEF3EF0010E53
:1011500000EE05F0EF62A8EF3BF04AEF3EF076ECD0
:101160003FF0010ADFE0030ADDE0010ADDE0070AE3
:10117000DBE0010AD7E0030AD5E0120012D0010E2D
:101180000601406F030E4AEC40F094EF3FF0010E71
:101190000601406F030E4AEC40F01E0E0301CA6FB9
:1011A0001E0C76EC3FF0020AEAE0060AF0E0020AC2
:1011B000E6E012000301BB6704D0CA6702D0CDEF9E
:1011C0003DF0CA6B0501736B94EF3FF0010E00EE2A
:1011D00003F0EF6204D04F6702D0CDEF3DF021EC79
:1011E0003FF00601006F0005D8B412000050DD0A80
:1011F0000BE1010E406F040E4AEC40F094EF3FF01B
:1012000001EF34F020EF2EF076EC3FF0010AF8E029
:10121000030AF6E0010AF6E0070AF4E0010AF0E04A
:10122000030AEEE012004F51D8A4120021EC3FF067
:101230000601006F0005D8B4120017D0370EFA5D12
:10124000070EFB5902E3ECEF3AF0010E0601406F86
:10125000040E4AEC40F094EF3FF0010E0601406F9F
:10126000040E4AEC40F094EF3FF076EC3FF0010AB8
:10127000E5E0030AF2E0010AF0E0070AEEE0010A05
:10128000ECE0030AEAE012000301C96710D0090E7E
:101290000501816F8C868B988B9A010E0601406F39
:1012A000040E4AEC40F077EC40F094EF3FF0FFEC96
:1012B0003DF0430A1DE0070A1CE0010A29E0030A89
:1012C00001E1FBD00E0A01E1FFD0020A11E0010AA0
:1012D0000FE01B0A01E128D1010A01E125D1030A2F
:1012E00001E13ED1010A01E145D1330A01E14CD1CE
:1012F00012008C868B988B9A0301BB6703D0CA6758
:1013000001D05AD2CA6BBB05D8B494EC3FF012009E
:101310007A05D8B412000301FE672DD055EC3FF0DA
:10132000010E0601406F030E4AEC40F0050E00EE80
:1013300004F0EF62050C630508E18C86640E17EC7F
:1013400019F00EEC40F01AEF0FF00601406BF00EB2
:10135000416F000E426B436B7FEC3DF0640E5E6F9D
:10136000000E5F6B0EEC40F040694169000E426B6D
:10137000436B7FEF3DF0CBEC37F0020A27E1B1EC95
:1013800030F084EC40F0F098090E816F55EC3FF09E
:10139000050E00EE04F0EF6206D0FA0E17EC19F01D
:1013A0000EEC40F008D0010E0601406F030E4AEC2F
:1013B00040F077EC40F00501630504E163EC31F0A7
:1013C00020EF2EF057EC30F020EF2EF0CBEC37F082
:1013D0000601006F000544E1B1EC30F084EC40F010
:1013E000F098090E816F55EC3FF0050E00EE04F009
:1013F000EF6206D0FA0E17EC19F00EEC40F008D0B0
:10140000010E0601406F030E4AEC40F077EC40F00D
:10141000050163051CE1636B4F5103E08C8620EFEF
:101420002EF00601406BF00E416F000E426B436BD5
:101430007FEC3DF0010E406F130E4AEC40F077EC6C
:1014400040F0060E816F320E0301C96F320C4F510E
:1014500003E08C8620EF2EF057EC30F020EF2EF0DA
:101460000501AC6B030E0301FE650BD00D0EFE6192
:1014700008D0CDEC35F00601006F0005D8B412009D
:1014800009D08C86010E0601406F040E4AEC40F034
:1014900077EC40F00501630506E10601E1EC18F088
:1014A0007FEC3DF005D00601DBEC18F07FEC3DF061
:1014B000010E0501AC6F55EF3FF07A05D8B412006C
:1014C00055EC3FF0AEEF11F07A0503E1020E826FAA
:1014D000020C0C0E0301FE610ED0D20EFE25E96E49
:1014E000EA6A030EEA22A7C3EFFFFE2B320EC96F92
:1014F000CB6FAEEF11F08C86010E0601406F040E2B
:101500004AEC40F077EC40F0630507E10601E1ECBE
:1015100018F07FEC3DF055EF3FF00601DBEC18F0E2
:101520007FEC3DF055EF3FF07A6B090E816FB1EC27
:1015300030F084EC40F08C868B988B9A010E00EE94
:1015400003F0EF6204D04F6702D0CDEF3DF021EC05
:101550003FF00601006F0005D8B4120020EF2EF016
:101560007A6BB1EC30F084EC40F08C868B988B9ADF
:1015700020EF2EF07A6BCDEC35F00601006F000500
:10158000D8A494EC3FF012007A6B090E816FB1EC95
:1015900030F084EC40F08C868B988B9A010E06011B
:1015A000406F040E4AEC40F094EF3FF00301C9672E
:1015B00002D001EF34F0010E00EE02F0EF6204D031
:1015C000CDEF3FF094EF3FF076EC3FF0010AFAE008
:1015D000020AF8E0070AF6E0010AF4E00DD0120072
:1015E00001EF34F094EF3FF0010E0601406F040E5E
:1015F0004AEC40F077EF40F0FFEC3DF0440AF2E0B7
:101600000E0AEDE0010AEBE01B0AEAE0010AE8E05D
:10161000020AEAE0070AE4E0340AE6E01200F29E79
:101620000301CF51CE1111E1080ECE6F070ECF6F1F
:10163000F28E010E0601406F030E4AEC40F0C20E1E
:10164000616F8C868B988B9AC20CF28E05014F517C
:1016500030E08BD11200A8EC3BF0C10E0501616FA8
:1016600012008C868B988B9A0301BB6704D0CA67E3
:1016700002D0CDEF3DF0CA6BBB05D8B494EC3FF07F
:1016800012008C868B988B9A010E0601406F150E06
:101690004AEC40F077EC40F094EF3FF08C868B986A
:1016A0008B9A010E0601406F150E4AEC40F094EF44
:1016B0003FF0FFEC3DF0420AD3E0010ACBE0070A1D
:1016C000D0E00E0AC7E0010AC5E01B0ADAE0010A11
:1016D000D8E0050AC0E0340AE1E0010ADFE01200C8
:1016E000F29E0301CF51CE1119E1090E0501816F60
:1016F000B1EC30F084EC40F0080E0301CE6F070E21
:10170000CF6FF28E010E0601406F030E4AEC40F0DF
:10171000C20E616F8C868B988B9AC20CF28E05017B
:101720004F5107E0090E816FB1EC30F084EC40F0CE
:101730001CD10301C96715D0090E0501816FB1ECF9
:1017400030F084EC40F08C868B988B9A010E060169
:10175000406F040E4AEC40F077EC40F0C00E616F31
:10176000C00CFFEC3DF0430A1EE0070A1DE0010A31
:101770002EE0030A63E00E0A75E0020A14E0010A93
:1017800012E01B0A01E19FD0010A01E19CD0030A8B
:1017900001E199D0010A01E1A7D0330A01E193D018
:1017A000010A01E190D012008C868B988B9A03017C
:1017B000BB6707D0CA6705D0090E0501816FCDEF61
:1017C0003DF0CA6BBB05D8B494EC3FF012000301A6
:1017D000FE670ED055EC3FF00601B4EC18F07FEC3C
:1017E0003DF0640E5E6F000E5F6B0EEC40F0BCD5FA
:1017F000090E0501816FCBEC37F000090DE08C86F6
:101800008B988B9A010E0601406F150E4AEC40F042
:1018100077EC40F094EF3FF08C868B988B9A010E1A
:101820000601406F040E4AEC40F077EC40F0B1EC5A
:1018300030F084EC40F0C00E616FC00C0601B4ECD7
:1018400018F07FEC3DF0640E5E6F000E5F6B0EECE7
:1018500040F040694169000E426B436B7FEC3DF004
:1018600055EF3FF00C0E0301FE6118D0D20EFE259D
:10187000E96EEA6A030EEA22A7C3EFFFFE2B320EDF
:10188000C96FCB6F0601B4EC18F07FEC3DF0640E2D
:101890005E6F000E5F6B0EEC40F066D5090E050121
:1018A000816F8C868B988B9A010E0601406F040E17
:1018B0004AEC40F077EC40F0B1EC30F084EC40F0D2
:1018C000C00E616FC00C090E816FB1EC30F084EC7A
:1018D00040F08C868B988B9A010E0601406F150E96
:1018E0004AEC40F094EF3FF0090E816F8C868B98A4
:1018F0008B9A010E0601406F040E4AEC40F077EC23
:1019000040F0B1EC30F084EC40F0C00E616FC00CE0
:10191000F29E0301CF51CE110CE1F28E8C868B9892
:101920008B9A070E0601406F160E4AEC40F094EFBA
:101930003FF0640E0601086F000E096BCEC306F679
:10194000CFC307F62FEC3DF0075106110AE1030162
:10195000CE07D8A0CF07010E0601406F160E4AEC45
:1019600040F0F28E05014F5121E08C868B988B9AC6
:1019700094EF3FF012008C868B988B9A0301BB6723
:1019800004D0CA6702D0CDEF3DF0CA6BBB05D8B416
:1019900094EC3FF012008C868B988B9A010E060116
:1019A000406F150E4AEC40F094EF3FF0FFEC3DF035
:1019B000430AE0E0070ADFE00E0ADCE0010ADAE0B1
:1019C0001B0AE9E0010AE7E0050AD4E0340AE3E093
:1019D000010AE1E01200F29E0301CF51CE1102E1B3
:1019E000F28E28D0F28ECC0508E1BA6706D0BB058E
:1019F00004E1CC6B270E05016F6FFFEC3DF04A0A46
:101A000008E0010A06E01F0A05E0340A09E0010ABD
:101A100007E01200A8EC3BF0C40E0501616FC40C96
:101A2000BDD0F29E0301CF51CE1109E1F28E090E15
:101A30000501816F8C868B988B9A65EF3DF0F28E55
:101A4000CC0508E1BA6706D0BB0504E1CC6B270ED4
:101A500005016F6F0301C96715D0090E0501816F7C
:101A60008C868B988B9A010E0601406F040E4AEC0F
:101A700040F077EC40F0B1EC30F084EC40F0C30E75
:101A8000616FC30CFFEC3DF0450A15E0030A3EE030
:101A90000E0A50E0020A0EE0010A0CE01B0A7BE08D
:101AA000010A08E0030A78E0010A7DE0330A74E0E5
:101AB000010A72E012000301FE670ED055EC3FF000
:101AC0000601B4EC18F07FEC3DF0640E5E6F000E82
:101AD0005F6B0EEC40F048D4090E0501816FCBEC32
:101AE00037F0000901E05AD08C868B988B9A010E52
:101AF0000601406F040E4AEC40F077EC40F0B1EC88
:101B000030F084EC40F0C30E616FC30C0601B4ECFE
:101B100018F07FEC3DF0640E5E6F000E5F6B0EEC14
:101B200040F040694169000E426B436B7FEC3DF031
:101B300055EF3FF00C0E0301FE6119D0D20EFE25C9
:101B4000E96EEA6A030EEA22A7C3EFFFFE2B320E0C
:101B5000C96FCB6F0601B4EC18F07FEC3DF0640E5A
:101B60005E6F000E5F6B0EEC40F0B4EF09F0090EF3
:101B70000501816F8C868B988B9A010E0601406F50
:101B8000040E4AEC40F077EC40F0B1EC30F084EC1D
:101B900040F0C30E616F1200090E816F8C868B9826
:101BA0008B9A23EF3AF0090E816F8C868B988B9A73
:101BB000010E0601406F040E4AEC40F077EC40F055
:101BC000B1EC30F084EC40F0C30E616FC30CF29EB8
:101BD0000301CF51CE1109E1F28E05017D6B0301A6
:101BE000C96BB20E0501616FB20CF28E00EE02F00D
:101BF000EF5004E105017D6B94EF3FF0FFEF3DF006
:101C00006051110AD8A412008C868B988B9A7C6B39
:101C1000726B1E0E0301CA6FBB0512E1010E0601B5
:101C2000406F140E4AEC40F00301BA6794EF3FF0A6
:101C30000501AD0503E1AD6BCDEF3FF0AD6B53D0CA
:101C4000010E0601406F0E0E4AEC40F0010E736F5C
:101C5000E7EC2EF0406B010E416F000E426B436BC0
:101C60007FEC3DF0CDEF3FF06051110AD8A4120097
:101C70008C868B988B9AAB6B010E00EE03F0EF62B3
:101C80000BD0000EE8CF03F00601426B110E406F3F
:101C9000000E416BB3EC3DF0010E00EE02F0EF627E
:101CA0000BD0000EE8CF02F00601426B100E406F21
:101CB000000E416BB3EC3DF005017C6B726B0301D0
:101CC000BB0507E1010E0601406F140E4AEC40F01F
:101CD00006D0010E0601406F0E0E4AEC40F00301E3
:101CE000BA6794EF3FF0460E1AEF40F06451070ACE
:101CF00014E1580E06015E6F110EF7EC39F0050E77
:101D00000501816F8C868B988B9A77EC40F0B1EC53
:101D100030F084EC40F094EF3FF00301C96708D045
:101D2000010E0601406F040E4AEC40F0070E646F8E
:101D3000FFEC3DF0430A21E0070A1FE0010A27E01B
:101D4000030A01E1C7D20E0A01E1E3D2020A15E05B
:101D5000010A13E01B0A12E0010A10E0030A01E184
:101D600009D3010A01E136D3330A01E14BD3010A59
:101D700001E162D3020A01E178D31200010E0601EB
:101D8000406F040E4AEC40F0070E646F070C8CD2D3
:101D900084EC40F0010E0601406F030E4AEC40F067
:101DA00077EC40F00301FE6708D055EC3FF0E7EC1C
:101DB0002EF0640E0301C96F640C13EC3DF00009B2
:101DC0000CE112EC3BF0000908E1D8EC3CF0000912
:101DD00004E1B8EC3CF0000910E0010E0601406F90
:101DE000080E4AEC40F00601B4EC18F07FEC3DF030
:101DF00077EC40F0070E646F070CCBEC37F0020A6B
:101E00001EE18C86010E0601406F0C0E4AEC40F07C
:101E100077EC40F00301FE6B100E7DEC18F044EC03
:101E20003FF0E7EC2EF0640E0301C96F020E0501CE
:101E3000646F060140690F0E416FB6EF09F0010EA5
:101E40000601406F040E4AEC40F0070E646F070C69
:101E500084EC40F0010E0601406F030E4AEC40F0A6
:101E600077EC40F0030E0301FE6541D00D0EFE61DC
:101E70003ED0CBEC37F0000909E0010E0601406FBF
:101E8000040E4AEC40F0070E646F070C0C0E0601BE
:101E9000076FD20E056F030E066F090E036F000E5B
:101EA000046BE9EC3EF0E16A090EE124E96EEA6AAE
:101EB000000EEA22EF50426F200EE124406F416B8A
:101EC000000E4123B3EC3DF0E12A0B0EE164ECD7A8
:101ED000010E406F080E4AEC40F00601B4EC18F019
:101EE0007FEC3DF077EC40F0070E646F070CD7EC09
:101EF00038F000091AE08C86FE6B100E7DEC18F0AD
:101F000044EC3FF0030E0501646F060E816FE7ECB1
:101F10002EF0640E0301C96F010E0601406F0C0E16
:101F20004AEC40F077EC40F0D0D0010E0601406F53
:101F3000040E4AEC40F0070E646F070C84EC40F08E
:101F4000010E0601406F030E4AEC40F077EC40F0C2
:101F5000030E0301FE6589D00D0EFE6186D0CBEC29
:101F600037F0000909E0010E0601406F040E4AEC4B
:101F700040F0070E646F070C08C0D9FFD9CF00F6F8
:101F80000601002B00C608F008C042F678EC18F0F5
:101F9000B3EC3DF00301FF510D0D080EF324E96E83
:101FA000000EF420EA6E010EEF6E0601426F6DEC3A
:101FB00018F0B3EC3DF0010ED96ED950FF0F006F51
:101FC000D20E06010025E96EEA6A0301030EEA2239
:101FD000FF510D0D080EF3240601016F000EF420D1
:101FE000026FD9500125E16E000E0221E26EEFCFA3
:101FF000E7FFD950FF0F006FD20FE96EEA6A030EB8
:10200000EA22EF50426F0301FF510D0DD950F32624
:10201000000EF422230EF3240601406F000EF4207C
:10202000416FB3EC3DF0D92A0C0ED964C6D7010E2E
:10203000406F080E4AEC40F0060166EC18F07FECA9
:102040003DF077EC40F0010EA36F0301FE6B100E24
:102050007DEC18F044EC3FF0E7EC2EF0080E0501A3
:10206000646F640E0301C96FE4D6010E0601406F70
:10207000040E4AEC40F0070E646F070C84EC40F04D
:10208000010E0601406F030E4AEC40F077EC40F081
:10209000D7EC38F000091CE08C86FE6B100E7DEC4E
:1020A00018F044EC3FF0030E0501646F060E816FDB
:1020B000E7EC2EF0640E0301C96F010E0601406FBC
:1020C0000C0E4AEC40F077EC40F00601B4EF09F05A
:1020D000010E0601406F040E4AEC40F0070E646FDB
:1020E000070C84EC40F0010E0601406F030E4AEC31
:1020F00040F077EC40F0CBEC37F0020A19E18C8627
:102100000301FE6B100E7DEC18F044EC3FF0090E5D
:102110000501646FE7EC2EF0640E0301C96F010E38
:102120000601406F0C0E4AEC40F077EC40F081D68F
:10213000010E0601406F040E4AEC40F0070E646F7A
:10214000070C84EC40F0010E0601406F030E4AECD0
:1021500040F077EC40F009EC39F0000909E1010E9C
:102160000601406F040E4AEC40F0070E646F070C46
:10217000FF510D0D080EF324E96E000EF420EA6EF7
:10218000010EEF620ED008C0E1FFE1CF00F60601BC
:10219000000700C608F008C042F678EC18F0B3EC6F
:1021A0003DF00301FF510D0D080EF324E96E000E02
:1021B000F420EA6E020EEF6210D007C0D9FFD9CF2B
:1021C00000F60601000700C607F007C042F6180E29
:1021D000406F000E416BB3EC3DF03F0E00EE06F099
:1021E000EF6214D000EE08F0EF5004E000EE07F0CC
:1021F000EF500CE13A0EE8CF06F006C042F6140E9E
:102200000601406F000E416BB3EC3DF00301FF513E
:102210000D0D080EF324E96E000EF420EA6EEF6A4D
:102220000601426B6DEC18F0B3EC3DF0406BF00E24
:10223000416F000E426B436B7FEC3DF0010E406F2F
:10224000080E4AEC40F077EC40F0070E646F070C84
:1022500084EC40F0010E0601406F030E4AEC40F0A2
:1022600077EC40F0CCEC3BF0000904E1CBEC37F02C
:10227000020A11E134EC29F0010E406F080E4AEC1D
:1022800040F0060166EC18F07FEC3DF077EC40F092
:10229000070E646F070C010E0601406F040E4AEC36
:1022A00040F0070E646F070C6451010A01E170D51C
:1022B000030A01E1CDD5010A01E140D6060A01E198
:1022C00010D7030AC5E00E0A01E1D8D6010A01E1E0
:1022D00038D712006451030A13E10301FE6710D0DE
:1022E000580E06015E6F110EF7EC39F0050E050170
:1022F000816FE7EC2EF040695BEC18F07FEC3DF06D
:1023000055EC3FF0A75117EC36F0640E0301C96F8E
:10231000640C6451030A13E10301FE6710D0580EE8
:1023200006015E6F110EF7EC39F0050E0501816FA5
:10233000E7EC2EF040695BEC18F07FEC3DF00C0E02
:102340000301FE610ED0D20EFE25E96EEA6A030E8D
:10235000EA22A7C3EFFFFE2B640EC96FA75117EF48
:1023600036F0010E0601406F040E4AEC40F0070EF5
:10237000646F070C6451030A03E184EC40F0F098A9
:10238000580E06015E6F110EF7EC39F0050E0501CF
:10239000816F8C86010E0601406F080E4AEC40F0FA
:1023A00077EC40F0E7EC2EF040695BEC18F07FEC46
:1023B0003DF00301FE6B100E7DEC18F044EC3FF095
:1023C000080E0501646F640E0301C96F010E05015B
:1023D000A36F010C6451030A05E184EC40F0F0980E
:1023E000040E646F640E0301C96F8C86010E060132
:1023F000406F040E4AEC40F077EC40F00601406B71
:10240000F00E1AD5A3050EE184EC40F0010E060192
:10241000406F080E4AEC40F0060166EC18F07FECC5
:102420003DF006D0010E0601406F040E4AEC40F06C
:10243000070E0501646F070C8C86010E0601406FC4
:10244000050E4AEC40F077EC40F0060140695BEC89
:1024500018F07FEC3DF0E7EC2EF055EC3FF0640E09
:10246000C96F050E0501646F050C8C86010E06010F
:10247000406F050E4AEC40F077EC40F006014069F1
:102480005BEC18F07FEC3DF0E7EC2EF055EC3FF004
:10249000640EC96F060E0501646F060C05016151DB
:1024A00002E1FEEF07F0B10A02E112EF08F0030AC1
:1024B00002E108EF08F0010A02E133EF08F0070A31
:1024C00002E144EF09F0020A02E1D6EF0AF0010A44
:1024D00002E100EF0EF00F0A02E134EF0EF0010A04
:1024E00001E104D4790A02E10FEF0BF0010A02E1E5
:1024F00070EF0BF0030A02E188EF0CF0010A02E131
:10250000EBEF0CF0070A02E111EF0DF0030A02E114
:10251000E7EF0DF0120006018DEC19F07FEC3DF0B5
:102520000301C96701D0120085B8FAD7FA0E060177
:102530005E6F000E5F6B0EEC40F088EC19F00EEC55
:1025400040F005014A6B4B6B4C6B4D6B81B64A8F6B
:1025500085A44B8581AA81B84B8385B825D0F6EC3C
:102560003CF002C6FAF303C6FBF3360E0301FA5D34
:10257000070EFB590CE2240E05014A13040E4B13FF
:10258000000E4AC540F681EC19F07FEC3DF04AC5DB
:1025900040F681EC19F07FEC3DF0640E5E6F000EAA
:1025A0005F6B0EEC40F0CDD706018DEC19F07FEC9F
:1025B0003DF0FA0E5E6F000E5F6B0EEC40F088ECA3
:1025C00019F00EEC40F088EC19F00EEC40F088ECBD
:1025D00019F00EEC40F0FA0E5E6F000E5F6B0EEC21
:1025E00040F088EC19F00EEC40F088EC19F00EEC9D
:1025F00040F088EC19F00EEC40F0000E67EC19F09A
:102600007FEC3DF0500E406F080E62EC19F07FEC4D
:102610003DF070EC40F094909492949494968B904A
:102620008B82020E0501626F140E4E6F020E986FC0
:10263000BCEC26F047EC2FF005016267FBD7DAEC23
:102640003FF0050E0601406F020E4AEC40F08B8011
:102650008B8247EC2FF005016267FBD7880E0601DD
:10266000406F040E62EC19F07FEC3DF056EC3CF04C
:102670000A0E0301CB6F0A0E0301CB6F6AEC16F052
:102680000601016F0105F7E1406BF00E62EC19F0F5
:102690007FEC3DF0010E406F080E4AEC40F047EC35
:1026A0002FF005016267FBD7000E060167EC19F0F9
:1026B0007FEC3DF001EC40F0030E406F010E62EC48
:1026C00019F07FEC3DF0C30E921685BA85BC53D04D
:1026D000898489968998898AC80E5E6F000E5F6B1F
:1026E0000EEC40F085AA85ACFDD7FDEC2FF032EC66
:1026F00040F093EC40F0899489868988899A030197
:10270000C367FDD732EC40F0640E5E6F000E5F6B66
:102710000EEC40F093EC40F0FA0E5E6F000E5F6B33
:102720000EEC40F088EC19F00EEC40F089948986AC
:102730008988899AC80E5E6F000E5F6B0EEC40F0C0
:1027400085BA85BCFDD7FDEC2FF032EC40F093EC60
:1027500040F0898489968998898A0301C367FDD7E7
:1027600032EC40F0640E5E6F000E5F6B0EEC40F0DA
:1027700093EC40F052D0899489868988899AC80E52
:102780005E6F000E5F6B0EEC40F085BA85BCFDD726
:10279000FDEC2FF032EC40F093EC40F08984899608
:1027A0008998898A0301C367FDD732EC40F0640E33
:1027B0005E6F000E5F6B0EEC40F093EC40F0FA0E93
:1027C0005E6F000E5F6B0EEC40F088EC19F00EECC3
:1027D00040F0898489968998898AC80E5E6F000EB8
:1027E0005F6B0EEC40F085AA85ACFDD7FDEC2FF0B9
:1027F00032EC40F093EC40F0899489868988899A7C
:102800000301C367FDD732EC40F0640E5E6F000E2B
:102810005F6B0EEC40F093EC40F08C868B988B9ABB
:102820000501736BB1EC30F084EC40F082EC35F0D4
:10283000CD90F180F08CF08EF182F18CF19881A630
:1028400002D0F19601D0F186F288F088F08AF28603
:10285000A76BD16A0300F296F298D16ABAEC31F014
:10286000E7EC2EF040694169000E426B436B7FEC50
:102870003DF005014A694B69000E4C6B4D6B06013A
:10288000006B60EC2CF047EC2FF038D00301A7511F
:102890005CEC33F002C64AF503C64BF504C64CF5B2
:1028A00005C64DF54AC540F681EC19F07FEC3DF0C8
:1028B000010E406F030E4AEC40F047EC2FF005018B
:1028C0006267FBD7010E0601006F20D00301A751FC
:1028D0005CEC33F002C64AF503C64BF504C64CF572
:1028E00005C64DF54AC540F681EC19F07FEC3DF088
:1028F000010E406F030E4AEC40F008D0FFEC3DF0B3
:10290000450AC4E0030AE2E00E0AE0E00601000521
:10291000B8E1000E406B416B426B436B7FEF3DF0C3
:10292000E8CFF3FF070E5E6F220EF7EC39F0010ED1
:102930005E6F090EF7EC39F0F36606D0600E5E6F3D
:10294000020EF7EC39F005D0610E5E6F020EF7EC67
:1029500039F01CC65EF6020EF7EC39F01E0E5E6F03
:10296000010EF7EC39F0020E5E6F000E5F6B0EEC9D
:1029700040F0040E02EC38F00501656F0A0E02EC1F
:1029800038F0756F06015E6B010EF7EC39F05E6B87
:102990002E0EF7EC39F005016551040A01E099D1DA
:1029A000040006011D6B020E02EC38F0436F1E0E90
:1029B0001D25E96EEA6A060E3EEC19F01D65F3D797
:1029C000D96AF10ED924E96EEA6A030EEA22440EAE
:1029D000D924E16EE26A050EE222EFCFE7FFD92AA1
:1029E000D964EFD706011D6B010E5E6F1E0E1D250B
:1029F000E96EEA6A060EEA22EF50436F100E0601F6
:102A00001D25E96EEA6A050EEA22EF5043195EECD5
:102A10003BF01D2B030E1D65E7D7F36A220EF3244E
:102A2000E96EEA6A060EEA221E0EF324E16EE26AFD
:102A3000060EE222E7500A0FEF6EF32A030EF3644C
:102A4000EDD7D96A2DEC19F0D964FCD7400E22ECF1
:102A500019F05FEC1FF0F36A220EF324E96EEA6AC4
:102A6000060EEA22320EF324E16EE26A060EE2223C
:102A7000EFCFE7FFF32A030EF364EED7D96A260EF1
:102A8000D924E96EEA6A060EEA22D9CF43F6040E8B
:102A90004327320E4325E16EE26A060EE222EFCFB3
:102AA000E7FFD92A030ED964EAD7F46A320EF42478
:102AB000E96EEA6A060EEA22EF500FEC3FF0436F30
:102AC0002A0EF424E96EEA6A060EEA2243C6EFFFF4
:102AD000F42A070EF464EAD71D6B010E5E6F220E16
:102AE0001D25E96EEA6A060EEA22EF505EEC3BF025
:102AF00010EC19F03EEC19F01D65EFD71D6B010EBF
:102B00005E6F000E5EEC3BF0436F1DC644F6040E94
:102B100044273A0E4425E96EEA6A060E3EEC19F0A7
:102B20001D65EDD7EFEC3BF0426FE16A3A0EE12410
:102B3000E96EEA6A060EEA22EF50436F320EE12494
:102B4000E96EEA6A060EEA224351EF1AE12A070EFD
:102B5000E164ECD7D96AD9CF43F6432B3A0E43252B
:102B6000E96EEA6A060EEA22EF50446F010E44173E
:102B70002A0ED924E96EEA6A060EEA224451EF1AB7
:102B8000D92A070ED964E7D7030E5E6F220EF7EC41
:102B900039F0010E5E6F090EF7EC39F0100E5E6F22
:102BA0003A0EF7EC39F0F36A2A0EF324E96EEA6A7A
:102BB000060EEA22EF505E6F270EF7EC39F0320E68
:102BC000F324E96EEA6A060EEA22EF505E6F020E07
:102BD000F7EC39F0F32A070EF364E6D71E0E5E6FAA
:102BE000010EF7EC39F0020E5E6F000E5F6B0EEC1B
:102BF00040F01D6B010E5E6F000E5EEC3BF010ECC2
:102C000019F03EEC19F01D65F5D75E6B3A0EF7EC46
:102C100039F0040E02EC38F00501656F0A0E02EC83
:102C200038F0756F06015E6B010EF7EC39F05E6BE4
:102C30002E0EF7EC39F005016551040A49E1040054
:102C400006011D6B020E02EC38F0436F220E1D25AB
:102C5000E96EEA6A060E3EEC19F01D65F3D7D96AF3
:102C60002DEC19F0D964FCD7D96A3A0ED924E96E53
:102C7000EA6A060EEA22EF50436F220ED924E96E6B
:102C8000EA6A060EEA224351EF1AD92A030ED964E2
:102C9000ECD7600E22EC19F05FEC1FF0F46AF36AD7
:102CA000220EF324E96EEA6A060EEA22260EF324C7
:102CB000E16EE26A060EE222E750EF6201D001D037
:102CC000F42AF32A030EF364EBD7F466000C010C2C
:102CD000000C000C0400CB6701D0000C51EC34F068
:102CE0006FEC38F0156F150501E0BED1D96AE20E20
:102CF000D924E96EEA6A030EEA22EF6AD92A0E0E97
:102D0000D964F5D7050E0601176F166B930E53ECB9
:102D100025F0050E176F166B930ED5EC2CF00601FF
:102D2000046F04055DE1E2C3D2F3E3C3D3F3E4C36C
:102D3000D4F3E5C3D5F30301D66BD76BD86BD96B4E
:102D4000DA6BDB6BDC6BDD6BDE6BDF6BE06BE16B3F
:102D5000E2C310F5E3C311F5E4C312F5E5C313F5BF
:102D6000E16A0601050EE124E96EEA6A060EEA222E
:102D7000EF6AE12A030EE164F4D7040E77EC19F050
:102D8000A9EC3EF0000901E0000CD96A050ED92437
:102D9000E96EEA6A060EEA22EF68D92A030ED964C0
:102DA000F5D7040E6CEC19F0A9EC3EF0000901E037
:102DB000000C0301E251080A04E0E2510F0B0F0A74
:102DC00001E1000C4DEC3AF00601156F150504E128
:102DD000110E05016E6F020C050178677BD7010C9F
:102DE0000451030A5CE177EC3AF0156F150556E1E2
:102DF00035EC3CF05E6B010EF7EC39F0E2C3D2F338
:102E0000E3C3D3F3E4C3D4F3E5C3D5F3E6C3D6F306
:102E1000E7C3D7F3E8C3D8F3E9C3D9F30301DA6B07
:102E2000DB6BDC6BDD6BDE6BDF6BE06BE16BE16A58
:102E30000601050EE124E96EEA6A060EEA22EF6A4F
:102E4000E12A070EE164F4D7080E77EC19F0A9EC3B
:102E50003EF0000901E0000CE16A050EE124E96E94
:102E6000EA6A060EEA22EF68E12A070EE164F5D766
:102E7000080E6CEC19F0A9EC3EF0000901E0000C22
:102E80004DEC3AF00601156F150504E1110E050130
:102E90006E6F020C050178671DD7010C000C045100
:102EA000020A01E0DCD00A0E176F050E166F950EB0
:102EB00053EC25F00A0E176F050E166F950ED5EC24
:102EC0002CF00601046F040555E135EC3CF05E6B17
:102ED000010EF7EC39F0E3C3D2F3E4C3D3F3E5C357
:102EE000D4F3E7C3D5F3E8C3D6F3E9C3D7F3EAC312
:102EF000D8F30301D96BDA6BDB6BDC6BDD6BDE6B5C
:102F0000DF6BE06BE16BD96A0601050ED924E96E2F
:102F1000EA6A060EEA22EF6AD92A060ED964F4D7C5
:102F2000070E77EC19F0A9EC3EF0000901E0000C67
:102F3000D96A050ED924E96EEA6A060EEA22EF681C
:102F4000D92A060ED964F5D7070E6CEC19F0A9EC56
:102F50003EF0000901E0000C4DEC3AF00601156F5F
:102F6000150504E1110E05016E6F020C050178676D
:102F7000B1D6010C0451020A6BE10F0E176F0A0E55
:102F8000166F970E53EC25F00F0E176F0A0E166F83
:102F9000970ED5EC2CF00601156F150501E09AD6B9
:102FA00035EC3CF05E6B010EF7EC39F0E3C3D2F385
:102FB000E4C3D3F3E5C3D4F3E8C3D5F3E9C3D6F34D
:102FC000EAC3D7F3ECC3D8F3EDC3D9F3EEC3DAF316
:102FD000EFC3DBF30301DC6BDD6BDE6BDF6BE06B00
:102FE000E16BD96A0601050ED924E96EEA6A060E7C
:102FF000EA22EF6AD92A090ED964F4D70A0E77ECCF
:1030000019F0A9EC3EF0000901E0000CE16A050EA0
:10301000E124E96EEA6A060EEA22EF68E12A090E67
:10302000E164F5D70A0E6CEC19F0A9EC3EF000094A
:1030300001E0000C4DEC3AF00601156F150504E1B6
:10304000110E05016E6F020C0501786743D6010C65
:1030500035EC3CF05E6B010EF7EC39F0000C5E6B6A
:10306000010EF7EC39F03CD65E6B010EF7EC39F04F
:10307000000C160E0601406F000E416B1200416FEE
:10308000000E426B436B12000251056F0A0E066F71
:1030900005511200F00E0615026F0F0E0715036F93
:1030A000040E046F1200086F000E096B70C506F65F
:1030B00071C507F612000F0E416F000E426B436B95
:1030C000120006015E6F000E5F6B1200406BF00E87
:1030D000416F000E426B436B12000301FF510D0D57
:1030E000230EF3240601406F000EF420416F1200FE
:1030F000170E406F000E416B12000601086F096B3E
:10310000D20E066F030E076F1200230EF324060182
:10311000406F000EF420416F12000D0D080EF324D5
:10312000E96E000EF420EA6EEF5012000D0D080E4D
:10313000F324E96E000EF420EA6EEF5012004527EA
:10314000000E4623472312004427000E4523462342
:1031500047231200D20E166F030E176F120080C69F
:103160008AF681C68BF61200406BF00E416F000E9E
:10317000426B436B12001F6FE20E06011E25E96EC3
:10318000EA6A030EEA221F51EF121E2B120049C6F3
:1031900071F64AC672F64BC673F61200256F100E12
:1031A00006012425E96EEA6A050EEA222551EF128E
:1031B000242B040E120040694169000E426B436BE0
:1031C000120040690F0E416F000E426B436B1200FC
:1031D000E96EEA6A050EEA22EF5006015E6F020E02
:1031E0001200F324E96EEA6A060EEA22EF505E6FDF
:1031F000020E1200EA2257C6EFFF1C2B110E12001E
:10320000F324E96EEA6A060EEA22EF505E6F270E9B
:103210001200406BF00E416F000E426B436B1200C8
:10322000436F3A0E1D25E96EEA6A060E120006018A
:103230005E6F000E5F6B1200E96EEA6A060EEA220C
:10324000EF501200476F260E456F060E466F1200B4
:1032500075C68AF676C68BF612001E0ED924E96E64
:10326000EA6A060EEA22260ED924E16EE26A060E0A
:10327000E222EFCFE7FFD92A030E1200EA2243C66B
:10328000EFFF1D2B030E1200980E7D6F9E0E7E6FBA
:103290007C2B12008E0E7D6FB40E7E6F7C2B120085
:1032A000826F75C680F676C681F61200130E06018F
:1032B000406F000E416B1200140E0601406F000EAD
:1032C000416B1200416F000E426B436B1200406B6A
:1032D000416B426B436B12001A6F050E186F060E9E
:1032E000196FD20E0601166F030E176F12001A6FB8
:1032F000050E186F060E196FD20E166F030E176F9C
:1033000012004BC541F64CC542F64DC543F61200BE
:10331000FA0E5E6F000E5F6B120040694169000E8D
:10332000426B436B12004155416F000E4255426F94
:10333000000E4355436F120006015E6F000E5F6B77
:103340001200040DF3CF3BF6F00E3B270B0E3B258E
:10335000E96EEA6A060EEA22EE50075FEE50085B5D
:10336000EE50095BED500A5B12000651040DF3CFDD
:103370003BF6F00E3B270B0E3B25E96EEA6A060E84
:10338000EA22EECF3CF6EECF3DF6EECF3EF6EECFA4
:103390003FF60301FD5112000711406FF00E0811B6
:1033A000416F000E0911426F000E0A11436F1200A7
:1033B000040DF3CF3BF6F00E3B270B0E3B25E96ED9
:1033C000EA6A060EEA22EECF3CF6EECF3DF6EECFED
:1033D0003EF6EECF3FF60301FC51120008C641F65F
:1033E00009C642F60AC643F612008A25E96E000EA7
:1033F0008B21EA6EEF508E6F8D2B1200E8CFD9FF34
:103400000400A00E346FD9CF35F6340E5E6F060E71
:103410005F6F020E9CEC39F05EC620F65FC621F6A7
:1034200020C636F62151376FF36A340EF3241CECB4
:1034300019F00FEC3FF05C6F220EF324E96EEA6A9C
:10344000060EEA225CC6EFFFF32A030EF364EDD703
:103450001F6B010E5E6F000E5EEC3BF05C6F460E64
:103460001F25E96EEA6A060EEA225CC6EFFF1F2BF3
:10347000030E1F65EED7010E5E6F000E83EC3BF06E
:103480004A6F4AC61EF6D96A460ED924E96EEA6A20
:10349000060EEA22EF505C6F340ED924E96EEA6A18
:1034A000060EEA225C51EF1AD92A030ED964ECD732
:1034B000D96AD9CF5CF65C2B460E5C25E96EEA6AC8
:1034C000060EEA22EF505D6F010E5D17220ED92421
:1034D000E96EEA6A060EEA225D51EF1AD92A030E56
:1034E000D964E7D75E6F220EF7EC39F0010E5E6FFC
:1034F000090EF7EC39F0100E5E6F3A0EF7EC39F06A
:10350000F36A220E00EC19F0F7EC39F0340EF1EC0E
:1035100018F0F7EC39F0F32A030EF364F2D7400EFB
:103520005E6F0F0EF7EC39F01E0E5E6F010EF7ECBA
:1035300039F0020E5E6F000E5F6B0EEC40F05E6BBA
:103540000F0EF7EC39F05E6B3A0EF7EC39F0040E23
:1035500002EC38F00501656F0A0E02EC38F0756F69
:1035600006015E6B010EF7EC39F05E6B2E0EF7EC88
:1035700039F0020E02EC38F00501896F893B0F0E1D
:10358000891706011E510501891B89510A0A01E0AC
:10359000000C06011F6B010E5E6F000E5EEC3BF02F
:1035A0005C6F460E1F25E96EEA6A060EEA225CC6CB
:1035B000EFFF1F2B110E1F65EED7010E5E6F000E81
:1035C00083EC3BF0586F58C61EF6D96AD9501C25BB
:1035D000E96E000E1D21EA6E340ED924E16EE26A16
:1035E000060EE222EFCFE7FFD92A0F0ED964EED7FD
:1035F000340E5E6F060E5F6F100E9CEC39F05EC6E7
:1036000020F65FC621F620C644F62151456FF46AC4
:10361000340EF4241CEC19F00FEC3FF05C6F220E1A
:10362000F424E96EEA6A060EEA225CC6EFFFF42A89
:10363000110EF464EDD7D96A460ED924E96EEA6A10
:10364000060EEA22EF505C6F340ED924E96EEA6A66
:10365000060EEA225C51EF1AD92A110ED964ECD772
:10366000E16AE1CF5CF65C2B460E5C25E96EEA6A06
:10367000060EEA22EF505D6F010E5D17220EE12467
:10368000E96EEA6A060EEA225D51EF1AE12A110E8E
:10369000E164E7D7030E5E6F220EF7EC39F0010EFE
:1036A0005E6F090EF7EC39F0100E5E6F3A0EF7EC14
:1036B00039F0F36A220E00EC19F0F7EC39F0340E11
:1036C000F1EC18F0F7EC39F0F32A110EF364F2D7AD
:1036D000400E5E6F0F0EF7EC39F01E0E5E6F010E9E
:1036E000F7EC39F00A0E5E6F000E5F6B0EEC40F0E7
:1036F0005E6B0F0EF7EC39F05E6B3A0EF7EC39F0BB
:10370000040E02EC38F00501656F0A0E02EC38F089
:10371000756F06015E6B010EF7EC39F05E6B2E0ED5
:10372000F7EC39F0020E02EC38F00501896F893BA5
:103730000F0E891706011E510501891B89510A0ABE
:1037400001E1010C000C0601066B076B086B096BAD
:103750000A6B05EEBBF016EE0BF0300EEECFE6FF77
:10376000E82EFCD78C860501630501E19CD038D199
:10377000040092EC3EF047EC2FF0040E06010661C7
:103780001DD00651040D0B0EF324E96EEA6A060EF5
:10379000EA22EE500713EE500813EE500913ED50D5
:1037A0000A1307C640F6EEEC19F07FEC3DF03C0E34
:1037B0005E6F000E5F6B0EEC40F074D00B0E066572
:1037C00031D00651D8EC19F09EEC34F03F5143193A
:1037D00008E13E51421905E13D51411902E13C51D8
:1037E000401913E0B5EC19F09EEC34F03F51431949
:1037F00008E13E51421905E13D51411902E13C51B8
:10380000401903E00651A1EC19F007C640F6EEECB2
:1038100019F07FEC3DF03C0E5E6F000E5F6B0EEC1E
:1038200040F040D00651040D0B0EF324E96EEA6A15
:10383000060EEA22EE500713EE500813EE5009135D
:10384000ED500A130651D8EC19F09EEC34F03F51BC
:10385000431908E13E51421905E13D51411902E188
:103860003C51401913E0B5EC19F09EEC34F03F5197
:10387000431908E13E51421905E13D51411902E168
:103880003C51401903E00651A1EC19F007C640F67F
:10389000EEEC19F07FEC3DF03C0E5E6F000E5F6BBE
:1038A0000EEC40F0062B0F0E0601066561D70F0CDB
:1038B000040092EC3EF047EC2FF0040E0601066186
:1038C0001CD00651040D0B0EF324E96EEA6A060EB5
:1038D000EA22EE500713EE500813EE500913ED5094
:1038E0000A13000ECCEC19F07FEC3DF03C0E5E6F3D
:1038F000000E5F6B0EEC40F072D00B0E066530D000
:103900000651D8EC19F09EEC34F03F51431908E110
:103910003E51421905E13D51411902E13C51401926
:1039200013E0B5EC19F09EEC34F03F51431908E177
:103930003E51421905E13D51411902E13C51401906
:1039400003E00651A1EC19F0000ECCEC19F07FEC6D
:103950003DF03C0E5E6F000E5F6B0EEC40F03FD012
:103960000651040D0B0EF324E96EEA6A060EEA22F4
:10397000EE500713EE500813EE500913ED500A13E2
:103980000651D8EC19F09EEC34F03F51431908E190
:103990003E51421905E13D51411902E13C514019A6
:1039A00013E0B5EC19F09EEC34F03F51431908E1F7
:1039B0003E51421905E13D51411902E13C51401986
:1039C00003E00651A1EC19F0000ECCEC19F07FECED
:1039D0003DF03C0E5E6F000E5F6B0EEC40F0062B70
:1039E0000F0E0601066564D70F0C27D1120056ECA6
:1039F0003CF0640E0301CB6F070E0501816F070CCD
:103A00000301CB6704D0090E0501816F090C6AEC34
:103A100016F00601006F00670DD00501796703D02D
:103A2000010E796F01D0796B080E816F280E0301AA
:103A3000C06F280C000501E0BAD005016151B90A38
:103A400001E0AAD06451040A04E06451030A01E0D1
:103A5000A3D000EE08F0EF5007C001F601C602F651
:103A60000601036B0227000E03230351800A800F17
:103A7000460ED8B4025D0BE3530E85EC3FF0030114
:103A8000CB6B020EC06F090E0501816F090C65EC4E
:103A900027F00009D8B4120007C0D9FFD9CF01F62A
:103AA000012B01C607F007C042F6180E406F000E4A
:103AB000416BB3EC3DF00301FF510D0D080EF324F3
:103AC000E96E000EF420EA6E020EEF6E0601426F00
:103AD0000301FF510D0D85EC18F0B3EC3DF0010E24
:103AE000D96ED950FF0F016FD20E06010125E96E84
:103AF000EA6A0301030EEA22FF510D0D080EF324BA
:103B00000601026F000EF420036FD9500225E16E0A
:103B1000000E0321E26EEFCFE7FFD950FF0F016FD8
:103B2000D20FE96EEA6A030EEA22EF50426F0301F8
:103B3000FF510D0DD950F326000EF42285EC18F03C
:103B4000B3EC3DF0D92A0A0ED964CBD70B0EE16E47
:103B50000301FF510D0D080EF3240601016F000E45
:103B6000F420026FE1500125E96E000E0221EA6E99
:103B7000EF6A426B0301FF510D0DE150F326000E79
:103B8000F42285EC18F0B3EC3DF0E12A0C0EE16470
:103B9000DFD7520E85EF3FF0530E85EC3FF0030167
:103BA000CB6B020EC06F090E0501816F090C00512D
:103BB000020A26E105016151B90A07E1530E85ECBD
:103BC0003FF0640E0301CB6F640C5FEC36F000092C
:103BD00003E1530E85EF3FF005016E51110AD8A4A1
:103BE000C0EC3FF06E69220E846F520E85EC3FF000
:103BF0000301CB6B020EC06F090E0501816F090C2A
:103C000001EC40F056EC3CF00A0E0301C06FC067B7
:103C1000FED712000301CB6703D0090E0501816FA7
:103C20000301C0671200070E0501816F070C01EC4C
:103C300040F0050E0501816F050C8151050A01E177
:103C4000D5D6030A01E1D3D6010A01E1D9D60F0A7C
:103C5000E1E0010AECE0050E816F050C13D16F5114
:103C6000380A03E06F51270A2BE16F51270A10E150
:103C70001E0E0301CD6F440E0501886F6051110ABD
:103C8000D8A4C0EC3FF0220E606F98EC40F018D042
:103C90006F51380A15E1A851330AD8A4C0EC3FF09F
:103CA000A869440E886F1E0E0301CD6F0501605197
:103CB000110AD8A4C0EC3FF0660E606F98EC40F09B
:103CC0006F6B1200C80E0301C26F030E0501806FF7
:103CD0006051220AD8A4C0EC3FF01E0E0301CD6F44
:103CE000330E42D00301C25109E0BB671200FDEC64
:103CF0002FF032EC40F093EC40F095D0BB5117E040
:103D000032EC40F093EC40F0010E406F0D0E4AECA7
:103D100040F077EC40F06051330AD8A4C0EC3FF09B
:103D2000440E606FC80E0301C26F1E0E8ED00A0EC5
:103D300061EC18F00EEC40F0AA0E0501606FAA0CC1
:103D40000301C267120032EC40F093EC40F0050131
:103D50008007805103E00301BA050AE1010E050165
:103D6000AD6FB6EC32F0CC0E0501606F18EF3EF08F
:103D7000C80EC26F05016051440AD8A4C0EC3FF0E0
:103D8000330E606F1E0E030135D0C80E0301C26FE3
:103D9000030E0501806F6051660AD8A4C0EC3FF0A5
:103DA0001E0E0301CD6F770E3FD00301C2510AE012
:103DB000BB05D8A41200FDEC2FF032EC40F093ECE0
:103DC00040F0D1D7BB0519E032EC40F093EC40F065
:103DD000010E406F0D0E4AEC40F077EC40F0605160
:103DE000770AD8A4C0EC3FF0880E606FC80E0301BC
:103DF000C26F1E0ECD6F18EF3EF00A0E61EC18F088
:103E00000EEC40F0AA0E0501606FAA0C0301C26718
:103E1000120032EC40F093EC40F00501800780671F
:103E200007D0B6EC32F0CC0E0501606FE6EF3DF046
:103E3000C80E0301C26F05016051880AD8A4C0EC06
:103E40003FF0770E606F1E0E0301CD6FE6EF3DF081
:103E50000301C351D8A4120032EC40F00A0E030152
:103E6000C26FBB0E0501606FBB0C0301C251D8A429
:103E7000120093EC40F0640EC46F05018869110EC6
:103E8000606F110C05016051110A01E1E8D6330A97
:103E900001E118D7110A01E125D7770A01E150D7CE
:103EA000220A01E172D7110A80E0FF0AAFE0220A7C
:103EB000D5E0110ADAE0770ACBE0C0EF3FF0486BBB
:103EC000496B4A6B4B6B020E4525E96E000E46218D
:103ED000EA6EEF504C6F4CC64DF64E6B4F6B506B0D
:103EE0004FC650F64EC64FF64DC64EF64D6B4529A1
:103EF000E96E000E4621EA6EEF50516F51C652F640
:103F0000536B546B556B53C655F652C654F6536BF0
:103F1000526B45C6E9FF46C6EAFFEF50566F56C6DC
:103F200057F6586B596B5A6B57C65AF6596B586B04
:103F3000576B525157115B6F535158115C6F54516D
:103F400059115D6F55515A115E6F4D515B115F6F85
:103F50004E515C11606F4F515D11616F50515E1198
:103F6000626F030E4525E96E000E4621EA6EEF50A2
:103F70005F11486F6051496F61514A6F62514B6FD9
:103F800048C670F6C7EC18F0DFEC36F070C648F69D
:103F900071C649F672C64AF673C64BF6D96A4751DE
:103FA000D95C01E385D048C64CF649C64DF64AC6F1
:103FB0004EF64BC64FF60B0E05D0D8904F334E330E
:103FC0004D334C33E82EF9D748C650F649C651F662
:103FD0004AC652F64BC653F60D0E05D0D890533351
:103FE000523351335033E82EF9D748C654F649C6F8
:103FF00055F64AC656F64BC657F60E0E05D0D89063
:104000005733563355335433E82EF9D748C658F64C
:1040100049C659F64AC65AF64BC65BF6100E05D08D
:10402000D8905B335A3359335833E82EF9D754516B
:1040300058195C6F555159195D6F56515A195E6F79
:1040400057515B195F6F50515C19606F51515D1989
:10405000616F52515E19626F53515F19636F4C511A
:104060006019646F4D516119656F4E516219666F29
:104070004F516319676F010E6415686F696B6A6B46
:104080006B6BD89048356C6F49356D6F4A356E6FE4
:104090004B356F6F68516C25486F69516D21496FC1
:1040A0006A516E214A6F6B516F214B6FD92A77D7B6
:1040B00048C670F6C7EC18F0DFEC36F070C648F66C
:1040C00071C649F672C64AF673C64BF645C6E9FF95
:1040D00046C6EAFF4BC6EFFF4529E96E000E4621B2
:1040E000EA6E4AC6EFFF020E4525E96E000E462134
:1040F000EA6E49C6EFFF030E4525E96E000E462124
:10410000EA6E48C6EFFF1200E8CF1DF6E16A100E16
:10411000E124E96EEA6A050EEA22EF6AE12A040E5A
:10412000E164F5D7200E06011E6F236B226B010E92
:10413000216F206B5E6B0F0EF7EC39F0030E5E6F94
:10414000220EF7EC39F0280E5E6F1A0EF7EC39F0FC
:104150008CD0010E5E6F090EF7EC39F01DC65EF6CD
:10416000020EF7EC39F01EC65EF6020EF7EC39F0DF
:10417000F46A2351F45C08E2100EF424E8EC18F021
:10418000F7EC39F0F42AF5D7225113E0100E0601AE
:104190002325E96EEA6A050EEA22EF505E6F020EF1
:1041A000F7EC39F02239F00B22115E6F0F0EF7ECAD
:1041B00039F01E0E5E6F010EF7EC39F0030E5E6FE4
:1041C000000E5F6B0EEC40F0040E02EC38F00501BF
:1041D000656F0A0E02EC38F0756F06015E6B010E1A
:1041E000F7EC39F05E6B2E0EF7EC39F0050123C6C3
:1041F00024F675A12FD0040E060105D0020E02ECA4
:1042000038F0CEEC18F02465F9D70B0E02EC38F03C
:104210001F6F1F39E8461F0B23271F51070B22274B
:10422000070E226503D0232B080E225F2339F00BE3
:104230002211200F1E6F202B020E206516D0D96A86
:10424000080E5E6F1A0EF7EC39F05E6B0F0EF7EC8E
:1042500039F0000C040E060105D0020E02EC38F015
:10426000CEEC18F02465F9D7216B216772D7080EC0
:104270005E6F1A0EF7EC39F05E6B0F0EF7EC39F04B
:104280000F0E5E6F220EF7EC39F0010E5E6F090E15
:10429000F7EC39F01DC65EF6020EF7EC39F0700E41
:1042A0005E6F020EF7EC39F0F36A100EF324E8ECBF
:1042B00018F0F7EC39F0F32A040EF364F6D71E0E6B
:1042C0005E6F010EF7EC39F0030E5E6F000E5F6B50
:1042D0000EEC40F0040E02EC38F00501656F0A0E9A
:1042E00002EC38F0756F06015E6B010EF7EC39F0E9
:1042F0005E6B2E0EF7EC39F005016505D8B475B785
:10430000000C75B3000C020E02EC38F0836F83C50D
:10431000D9FF640ED916D96601D0010CD950040A10
:1043200001E1020CD950240A01E1020CD950200A03
:1043300001E1030CD950400A01E1050CD950600A93
:1043400001E1050C000CE8CFD9FF0400300E316FFD
:10435000D9CF32F6310E5E6F060E5F6F020E9CEC07
:1043600039F05EC61DF65FC61EF61DC633F61E5139
:10437000346FF36A310EF324E96EEA6A060EEA221C
:10438000EF500FEC3FF0576F1F0EF324E96EEA6A0F
:10439000060EEA2257C6EFFFF32A030EF364EAD7AC
:1043A0001C6B010E5E6F000E5EEC3BF0576F430E10
:1043B0001C25E96EEA6A060EEA2257C6EFFF1C2B9F
:1043C000030E1C65EED7EFEC3BF0476FE16A430E3E
:1043D000E124E96EEA6A060EEA22EF50576F310EC9
:1043E000E124E96EEA6A060EEA225751EF1AE12A41
:1043F000030EE164ECD7D96AD9CF57F6572B430E99
:104400005725E96EEA6A060EEA22EF50586F010E50
:1044100058171F0ED924E96EEA6A060EEA2258518F
:10442000EF1AD92A030ED964E7D75E6F220EF7EC94
:1044300039F0010E5E6F090EF7EC39F0100E5E6F69
:104440003A0EF7EC39F0F36A1F0EF324E96EEA6ACC
:10445000060EEA22EF505E6F270EF7EC39F0310EB0
:10446000F324E96EEA6A060EEA22EF505E6F020E4E
:10447000F7EC39F0F32A030EF364E6D71E0E5E6FF5
:10448000010EF7EC39F0030E5E6F000E5F6B0EEC61
:1044900040F01C6B010E5E6F000E5EEC3BF0576F40
:1044A000430E1C25E96EEA6A060EFAEC18F01C654C
:1044B000F1D75E6B3A0EF7EC39F0040E02EC38F0EF
:1044C0000501656F0A0E02EC38F0756F06015E6B30
:1044D000010EF7EC39F05E6B2E0EF7EC39F00501AA
:1044E0006551120A48E106011C6B020E02EC38F01D
:1044F000576F310E1C25E96EEA6A060EFAEC18F0C9
:104500001C65F3D7E16A430EE124E96EEA6A060E00
:10451000EA22EF50576F310EE124E96EEA6A060E87
:10452000EA225751EF1AE12A110EE164ECD7310E5D
:104530005E6F060E5F6F120E9CEC39F05EC61DF6C4
:104540005FC61EF61E511D1115E1D96A310ED92420
:10455000E96EEA6A060EEA220401000ED924E16E31
:10456000E26A040EE222EFCFE7FFD92A0F0ED964E8
:10457000EDD7010C000C000C08D11200640E0601EE
:1045800053EC18F02FEC3DF006C608F607C609F606
:1045900055EC40F092EC37F04AEC18F00335033359
:1045A0000233042FFBD744EC18F0D5EC3EF0016F3A
:1045B00092EC37F04AEC18F0033503330233042F42
:1045C000FBD744EC18F0D5EC3EF0F36E0A0E53EC3A
:1045D00018F02FEC3DF00651006FF35001630DD041
:1045E00000510BE00A0E086F096B00510125066FA0
:1045F000076B07376CEC39F010D0F35001630FD024
:1046000000670DD00A0E086F096B030E0125066FB7
:10461000076B000E07236CEC39F00651F36E01C6F0
:10462000FCF3F3CFFDF3020E0501AA6F010E0601A4
:10463000406F110E4AEC40F0A3EC1BF0010E406FEE
:10464000030E4AEC40F0E7EC2EF0320E0301C96F86
:104650000501826B12000301A75139EC38F0050106
:10466000766FAA0523E176510301FC631CD0050196
:10467000630502E18C8607D00601406BF00E3FEC2B
:1046800018F07FEC3DF0320E0301C96FCB6F010EC5
:104690000601406F030E4AEC40F077EC40F0030E49
:1046A000826F7A6B12000501826B12000301FC51CC
:1046B0000501761905E0765103EEFDF0EF6237D083
:1046C000050176510301FC6302D0FDC3FCF3010E2A
:1046D0000501AA6F63050FE10301FC519EEC34F064
:1046E00040C640F641C641F642C642F643C643F6CE
:1046F0007FEC3DF012D00301FC519EEC34F0000E33
:104700004011406FF00E4111416F000E4211426F97
:10471000000E4311436F7FEC3DF0320E0301C96F71
:10472000CB6F010E0601406F030E4AEF40F005010A
:10473000826B1200635108E0060140690F0E3FECE6
:1047400018F07FEC3DF008D0060140694169000E89
:10475000426B436B7FEC3DF00301FE6B100E0601D4
:10476000086F096BD20E066F030E076F44EC3FF023
:10477000320E0301C96FE7EC2EF0320E0301CB6F4E
:10478000B40E0501616F826B12000501825101E1D7
:10479000F4D6010A01E1F2D6030A01E15CD7010A6D
:1047A000C9E0120081BA81A806D005017D6703D057
:1047B000440E85EC3FF00050DD0A49E053D081BA49
:1047C00002D081A81200020EB86FB96B120081BA34
:1047D00002D081A819D0B92B03EEB9F0040EEF6412
:1047E000040C030EB86FBA6B430E85EC3FF081AA40
:1047F00002D0AA0E01D0BB0E006E0601426F150E4C
:10480000406F416BB3EF3DF0010EB86F010C81AA10
:1048100081B81200040EB86FB96B120081AA81B87A
:1048200038D0B92B03EEB9F0040EEF64040C010E7E
:10483000B86FBA6F440E85EF3FF081BA02D081A8FD
:1048400002D0020E01D0040EB86FB96B1200030142
:10485000B851010AB4E0030ABAE0010AD8E0070A35
:10486000DDE0EBD70050AA0A1FE053D081AA120066
:10487000020EB86FB96B120081BA29D0010EB86F61
:10488000010C81BA1200040EB86FB96B120081AA34
:10489000C8D7030EB86F030C81AA02D0020E01D054
:1048A000040EB86FB96B12000301B851010ADEE0C3
:1048B000030AE2E0010AE5E0070AE9E0EDD781A892
:1048C0001200020EB86FB96B120081A80CD0B92B80
:1048D00003EEB9F0040EEF64040C030EB86FBA6B6C
:1048E000430E85EF3FF0010EB86F010C81B8120046
:1048F000040EB86FB96B120081A893D7030EB86F7E
:10490000030C81A802D0020E01D0040EB86FB96B5F
:1049100012000301B851010AD2E0030AD6E0010AED
:10492000E5E0070AE9E0EDD7FD0E0601036F030E8F
:10493000046F26EC40F0AA0A11E1FE0E036F030E8D
:10494000046F26EC40F0550A09E10369030E046F79
:1049500026EC40F0A50A02E1C2EF29F0DD0E426F1D
:10496000150E406F000E416BB3EC3DF0DD0E006E96
:10497000110E426F160E406F000E416BB3EC3DF00E
:10498000110EE8CF01F0426B406F000E416BB3ECAB
:104990003DF0000EE8CF03F0060E426F120E406F9E
:1049A000000E416BB3EC3DF0060EE8CF04F0426B15
:1049B000100E406F000E416BB3EC3DF0000EE8CFDF
:1049C00002F0010E426F130E406F000E416BB3EC0C
:1049D0003DF0010EE8CF05F03A0E426F140E406F25
:1049E000000E416BB3EC3DF03A0EE8CF06F0FDEC63
:1049F0003EF0006F00052AE10C0E086F096B090EEE
:104A0000066F000E076B44EC3FF0010EE8CF09F093
:104A1000060EE8CF0AF00C0EE8CF0BF0020EE8CF3E
:104A20000CF0D96A090ED924E96EEA6A000EEA226E
:104A3000EF50426F200ED924406F416B000E41238E
:104A4000B3EC3DF0D92A0B0ED964ECD7E16A090E1C
:104A5000E124E96EEA6A000EEA22200EE124036FE7
:104A6000046B000E042326EC40F0EF6EE12A0B0EDF
:104A7000E164EDD7CAEC39F0AA0E426FFD0E406F2B
:104A8000030E416FB3EC3DF0550E426FFE0E406FCA
:104A9000030E416FB3EC3DF0A50E426F4069030E6B
:104AA000416FB3EF3DF0E8CF19F61D6B1C6B1A6B2D
:104AB0001951930A02E10501786B16C6D9FF060168
:104AC0001751D95C09E2E20ED924E96EEA6A030EB5
:104AD000EA22EF6AD92AF3D75E6B0F0EF7EC39F0B2
:104AE000030E5E6F220EF7EC39F0280E5E6F1A0E81
:104AF000F7EC39F0010E5E6F090EF7EC39F019C6CC
:104B00005EF6020EF7EC39F01A51200F5E6F020EBE
:104B1000F7EC39F016C6F3FF16511DC61FF6206BD1
:104B20001F27000E2023F3CF21F6226B2251800A8B
:104B3000236F1F51215D2051800A23590EE2E20E9E
:104B4000F324E96EEA6A030EEA22EF5006015E6F73
:104B5000020EF7EC39F0F32ADFD71C5113E0E20E16
:104B600006011D25E96EEA6A030EEA22EF505E6F28
:104B7000020EF7EC39F01C39F00B1C115E6F0F0EB2
:104B8000F7EC39F01E0E5E6F010EF7EC39F0020EF5
:104B90005E6F000E5F6B0EEC40F00A0E02EC38F018
:104BA000186F5E6B010EF7EC39F05E6B2E0EF7ECB2
:104BB00039F018A123D0010E0501786F06011D51AF
:104BC00016251E6F17511E5D06E2020E02EC38F02C
:104BD000BBEC18F0F7D70B0E02EC38F01B6F1C5132
:104BE0001B271B39E8461F0B1D271B51070B1C6F8A
:104BF0001D51100DF3501C251A6F7CD71D51162521
:104C00001E6F17511E5DD8B01200020E02EC38F074
:104C1000BBEC18F0F6D7E96A0F0E856F0D0E846FA6
:104C20000B0E836F090E50EC19F0A4EC38F0776F7F
:104C3000170E856F150E846F130E836F110E50ECD7
:104C400019F0A4EC38F0786F1F0E856F1D0E846F7D
:104C50001B0E836F190E50EC19F0A4EC38F0796F2D
:104C6000270E856F250E846F230E836F210E50EC67
:104C700019F0A4EC38F07A6F2F0E856F2D0E846F2B
:104C80002B0E836F290E50EC19F0A4EC38F07B6FDB
:104C900077C67CF64AEC19F003D0D8907E337D338A
:104CA0007C2FFBD77D51010B776F78C67CF644ECE7
:104CB00019F003D0D8907E337D337C2FFBD7010EC3
:104CC0007D17D8907D35786F79C67CF644EC19F065
:104CD00003D0D8907E337D337C2FFBD7010E7D1718
:104CE000D8907D37D8907D35796F7AC67CF64AECBE
:104CF00019F003D0D8907E337D337C2FFBD7010E83
:104D00007D17D8907D37D8907D37D8907D357A6FD4
:104D10007BC67CF644EC19F003D0D8907E337D330B
:104D20007C2FFBD7010E7D177D39F00B7B6FE16A7D
:104D3000F36A770EF324E96EEA6A060EEA22EF5070
:104D4000E126F32A040EF364F4D70A0E7C6FE80E12
:104D50007D6F570E7E6FEC0E7F6FE150E82A05D015
:104D6000D8907F337E337D337C33E82EF9D77C5166
:104D7000010BE16EE15012004DD0190E866F240E2A
:104D800047D0AD0E866FB00E43D0BF0E866FC10EFA
:104D90003FD07F0E866F840E3BD0B30E866FB60E6B
:104DA00037D02F0E866F390E33D0430E866F4B0EE1
:104DB0002FD0910E866F950E2BD05F0E866F650EED
:104DC00027D0A10E866FA40E23D0B90E866FBC0E1D
:104DD0001FD0530E866F590E1BD06B0E866F700E50
:104DE00017D0750E866F7A0E13D0010E866F0D0EDA
:104DF0000FD0890E866F8D0E0BD0A70E866FAA0E70
:104E000007D0990E866F9D0E03D0C30E866FC50E18
:104E1000876F2AD005014E51010AAFE0030AB1E0C5
:104E2000010AB3E0070AB5E0010AB7E0030AB9E0F6
:104E3000010ABBE00F0ABDE0010ABFE0030AC1E0BE
:104E4000060AC3E0010AC5E0030AC7E0010AB1E0AF
:104E50001E0ACBE0030ACDE0010ACFE0070AC1E059
:104E6000010ACFE0030AD1E086C5F6FF0F0EF76E08
:104E7000000EF86E0800F5CFCBFF862B8BB08BA20F
:104E800008D00A0E0601406FCB504AEC3DF0030DEE
:104E900007D00A0E0601406FCB504AEC3DF0070DDB
:104EA000F3CFBCFF87C5F6FF0F0EF76E000EF86E4E
:104EB0000800F5CFC1F30501872B0301C151FA0F9B
:104EC0000501956FCA848B861200560E0B6FD60EA5
:104ED0000C6FDC0E0D6F0F0E0E6FBE0E0F6FE10E1E
:104EE000106F430E116F9A0E126F136B146B156BCC
:104EF000166B176B186B196B1A6B0301F669F56962
:104F0000F469F369F269F169280E06011C6F000E5D
:104F100090EC14F00601046F045159E02B0EA3EC41
:104F200021F00601046F046701D0000CC30E0301D9
:104F3000F66F2F0EF56F050EF46F250EF36F7C0ED6
:104F4000F26F9B0EF16FF6C305F6F5C306F6F4C3D8
:104F500007F6F3C308F6F2C309F6F1C30AF6D96AF5
:104F6000D950050806011B6F050FE96EEA6A060EA7
:104F7000EA22000ED924E16EE26A040EE222EFCFAB
:104F8000E7FFD92A050ED964EBD7F36A0A0EF3249A
:104F9000E96EEA6A040EEA22F350050806011B6F67
:104FA000050FE16EE26A060EE222E750010AEF6E9B
:104FB000F32A050EF364EAD71C6B040E1D6F2B0E4B
:104FC000FEEC19F00601046F046701D0000CC5EC7B
:104FD0003AF00601046F046701D0000C9B0E030138
:104FE000F66F7C0EF56F250EF46F050EF36F2F0E26
:104FF000F26FC30EF16F280E06011C6F000E90ECCD
:1050000014F00601046F0467010C000C010E5E6FC2
:10501000090EF7EC39F00501856709D0010E856F9F
:105020000A0E06015E6F020EF7EC39F007D0856BB1
:105030000B0E06015E6F020EF7EC39F05E6B020E8E
:10504000F7EC39F05E6B020EF7EC39F0CA0E5E6FCA
:10505000020EF7EC39F0010E5E6F020EF7EC39F03C
:10506000010E5E6F020EF7EC39F0080E5E6F020E55
:10507000F7EC39F01E0E5E6F010EF7EC39F00A0EF8
:105080005E6F000E5F6B0EEC40F0040E02EC38F029
:105090001A6F0A0E02EC38F00501746F06015E6BA0
:1050A000010EF7EC39F05E6B2E0EF7EC39F01A5169
:1050B0000C0A4AE1050174B7000C06011B6B1A517A
:1050C0001B5D0EE2020E02EC38F05C6F1C0E1B251D
:1050D000E96EEA6A060EEA225CC6EFFF1B2BEFD7E9
:1050E0001AC65CF6FE0E5C271C0E5C25E96EEA6AA9
:1050F000060EEA22900EEF62000C1AC65CF6FF0E56
:105100005C271C0E5C25E96EEA6A060EEA22EF5067
:105110001AE1D96AD9CF5CF6020E06015C271C0E93
:105120005C25E96EEA6A060EEA220301E20ED92442
:10513000E16EE26A030EE222EFCFE7FFD92A070E03
:10514000D964E8D7010C000C000CE16A000E8C6BEE
:1051500028EC19F04DEC2AF0776F050E8C6F28ECD7
:1051600019F04DEC2AF0786F090E8C6F28EC19F0CD
:105170004DEC2AF0796F0A0E8C6F28EC19F04DEC8B
:105180002AF07A6F0C0E8C6F28EC19F04DEC2AF097
:105190007B6F0E0E8C6F28EC19F04DEC2AF07C6FB3
:1051A0000F0E8C6F28EC19F04DEC2AF07D6F110E6C
:1051B0008C6F28EC19F04DEC2AF07E6F130E8C6F7B
:1051C00028EC19F04DEC2AF07F6F180E8C6F28EC4C
:1051D00019F04DEC2AF0806F190E8C6F28EC19F045
:1051E0004DEC2AF0816F1B0E8C6F28EC19F04DEC02
:1051F0002AF0826F1D0E8C6F28EC19F04DEC2AF00E
:10520000836F230E8C6F28EC19F04DEC2AF0846F1D
:10521000270E8C6F28EC19F04DEC2AF0856F290EC3
:105220008C6F28EC19F04DEC2AF0866F2A0E8C6FEB
:1052300028EC19F04DEC2AF0876F2B0E8C6F28ECC0
:1052400019F04DEC2AF0886FF36AE16A770EE124D9
:10525000E96EEA6A060EEA22EF50F31AE12A110E0D
:10526000E164F4D7F3501200DD0E0601426F150E13
:10527000406F000E416BB3EC3DF0DD0E006E110E81
:10528000426F160E406F000E416BB3EC3DF0110EF5
:10529000E8CF01F0060E426F120E406F000E416B18
:1052A000B3EC3DF0060EE8CF04F0426B100E406FF9
:1052B000000E416BB3EC3DF0000EE8CF02F0426B04
:1052C000110E406F000E416BB3EC3DF0000EE8CFC5
:1052D00003F0010E426F130E406F000E416BB3ECF2
:1052E0003DF0010EE8CF05F03A0E426F140E406F0C
:1052F000000E416BB3EC3DF03A0EE8CF06F00C0E19
:10530000086F096B090E066F000E076B44EC3FF047
:10531000010EE8CF09F0060EE8CF0AF00C0EE8CF38
:105320000BF0020EE8CF0CF0D96A090ED924E96E11
:10533000EA6A000EEA22EF50426F200ED924406F35
:10534000416B000E4123B3EC3DF0D92A0B0ED9641A
:10535000ECD7CAEC39F0AA0E426FFD0E406F030E77
:10536000416FB3EC3DF0550E426FFE0E406F030EE1
:10537000416FB3EC3DF0A50E426F4069030E416FE3
:10538000B3EF3DF0150E036F000E046B26EC40F0FA
:10539000006E160E036F000E046B26EC40F0016FDA
:1053A00001C601F0100E036F000E046B26EC40F0F6
:1053B000016F01C602F0110E036F000E046B26ECA4
:1053C00040F0016F01C603F0120E036F000E046B74
:1053D00026EC40F0016F01C604F0130E036F000EBF
:1053E000046B26EC40F0016F01C605F0140E036F4C
:1053F000000E046B26EC40F0016F01C606F0D96A7E
:10540000090ED924E96EEA6A000EEA22200ED92498
:10541000036F046B000E042326EC40F0EF6ED92AD4
:105420000B0ED964EDD7170E036F000E046B26EC3C
:1054300040F0016F01C608F0180E036F000E046BF8
:1054400026EC40F0016F01C607F0D96AE16AD95035
:105450000D0D150EF324016F000EF420026FE150C4
:105460000125E96E000E0221EA6ED9500D0DE150C2
:10547000F326000EF422300EF324036F000EF42006
:10548000046F26EC40F0EF6EE12A0C0EE164DFD7EA
:10549000D92A450ED964DAD7450C8C670BD0050E96
:1054A0008A25E96E000E8B21EA6EEF508D6F8DB16B
:1054B000010C000C8C39E8461F0BE16E8C51070B78
:1054C000F36EE1660FD0F3CF8DF6050EF5EC19F013
:1054D00002D0D8908E338D2FFCD78E51010BE16E08
:1054E000E1501200E1040FE1F3CF8DF6040EF5EC6C
:1054F00019F002D0D8908E338D2FFCD78E51010B2E
:10550000F46EF4501200E150020A0FE1F3CF8DF671
:10551000030EF5EC19F002D0D8908E338D2FFCD706
:105520008E51010BE16EE1501200E150030A0FE1D0
:10553000F3CF8DF6020EF5EC19F002D0D8908E3331
:105540008D2FFCD78E51010BF46EF4501200E150F8
:10555000040A14E1F3CF8DF68A29E96E000E8B213F
:10556000EA6EEF508E6F8D2B02D0D8908E338D2F38
:10557000FCD78E51010BE16EE1501200E150050A9B
:1055800013E1F3CF8DF68AC6E9FF8BC6EAFFEF5031
:105590008E6F8D2B02D0D8908E338D2FFCD78E51ED
:1055A000010BF46EF4501200000C010E5E6F090E38
:1055B000F7EC39F00501856709D0010E856F0A0EF9
:1055C00006015E6F020EF7EC39F007D0856B0B0E0B
:1055D00006015E6F020EF7EC39F05E6B020EF7EC1F
:1055E00039F05E6B020EF7EC39F0A40E5E6F020E1E
:1055F000F7EC39F0040E5E6F020EF7EC39F05E6BDB
:10560000020EF7EC39F0070E5E6F020EF7EC39F080
:10561000D40E5E6F020EF7EC39F0100E5E6F020EC4
:10562000F7EC39F05E6B020EF7EC39F05E6B020EB0
:10563000F7EC39F0030E5E6F020EF7EC39F05E6B9B
:10564000020EF7EC39F0010E5E6F020EF7EC39F046
:105650005E6B020EF7EC39F01E0E5E6F010EF7EC7A
:1056600039F00F0E5E6F000E5F6B0EEC40F0040E13
:1056700002EC38F01A6F0A0E02EC38F00501746F74
:1056800006015E6B010EF7EC39F05E6B2E0EF7EC47
:1056900039F0030E1A65000C050174B7000C020EF8
:1056A00002EC38F0020E02EC38F0020E02EC38F098
:1056B0006F0A01E1010C000C76D081A61200110ED8
:1056C00005016E6F0301B06BB16B010EAF6F010C82
:1056D00081A672D0B04BB12B0A0EB05D000EB1594D
:1056E000D8A01200020EAF6F020C81A62DD0B04BD5
:1056F000B12BB105F40ED8B4B019D8A41200030E22
:10570000AF6FBB671BD000EE02F0EF50010E11E14E
:10571000E8CF02F00601426F100E406F000E416BA1
:10572000B3EC3DF0010E406F0F0E4AEC40F0AB6B56
:1057300012000601406F070E4AEF40F0010E06010D
:10574000406F040E4AEF40F0010E00EE02F0EF62EF
:1057500016D005014F6713D0000EE8CF02F0060106
:10576000426B100E406F000E416BB3EC3DF0010E2A
:10577000406F040E4AEC40F00301AF6B12000501CC
:105780006E51110AD8A4C0EC3FF06E69220E846FEE
:10579000500E85EC3FF063EC3EF00301AF6B12005E
:1057A00081B6120009D00301AF5187E0010A90E0F1
:1057B000030A9BE0010AF4E0AF6B1200F29ED08C6A
:1057C000FA0E9CEC19F00EEC40F0FA0E5E6F000E33
:1057D0005F6B0EEC40F0BAEC31F068EC40F0FA0E82
:1057E0009CEC19F00EEC40F0FA0E5E6F000E5F6B51
:1057F0000EEC40F0D08EF28CF28E85A80DD0C80E43
:105800005E6F000E5F6B0EEC40F085A805D0140EA5
:105810000301C96F8BEC12F08C868B988B9A94ECF9
:1058200024F0010ED16ED0A60BD0406F4AEC40F0B0
:10583000040092EC3EF047EC2FF005016267F8D7C8
:105840000501616B020E0301C96FF6EC3CF002C664
:10585000FAF303C6FBF3110E0501606F7C6B726BEC
:10586000D0A624D00301BB0521E005014F5103E080
:10587000A8EC3BF01BD03F0E00EE06F0EF620CD020
:10588000010E636F00EE05F0EF6203D0BFEC3EF057
:105890000DD012EC3CF00AD0010E00EE05F0EF62E4
:1058A00003D04AEC3EF002D0A8EC3BF0040092ECAE
:1058B0003EF0FCEC07F0A3EC3FF0B6EC2DF0F6D791
:1058C0000501A70502E1F4EF3FF08CB6120033ECBE
:1058D0003FF00601406F40510D0AD8B412005AD073
:1058E0000601406701D01200110E05016E6F40C61F
:1058F000A4F30301A56BA66B010EA36F010CA451C9
:105900000601401903E00301A36B12000301A54B3C
:10591000A62B040EA55D000EA659D8A01200020EFB
:10592000A36F40C6A7F305016E51110AD8A4C0ECBD
:105930003FF06E69220E846F06014051040A03E1B4
:10594000450E85EF3FF04051090A03E1460E85EF11
:105950003FF0480E85EF3FF0A75106014019D8B43B
:1059600012000301A56BA66B030EA36F030C0601C7
:105970004051030103EEA7F0EF6203D0020EA36FC4
:10598000020CA54BA62B040EA55D000EA659D8B09F
:10599000A36B12000301A351A3E0010AB0E0030AC4
:1059A000DBE0010AE4E0A36B1200E8CFF4FF080E8D
:1059B0005E6F1A0EF7EC39F05E6B0F0EF7EC39F0F4
:1059C0004F0E5E6F220EF7EC39F0010E5E6F090E7E
:1059D000F7EC39F0F4CF5EF6020EF7EC39F0700E0A
:1059E0005E6F020EF7EC39F016C6F3FF1751F35C49
:1059F0000EE2E20EF324E96EEA6A030EEA22EF50A9
:105A000006015E6F020EF7EC39F0F32AEFD71E0E97
:105A10005E6F010EF7EC39F0020E5E6F000E5F6BE9
:105A20000EEC40F0040E02EC38F00501976F0A0E00
:105A300002EC38F0746F020E02EC38F0776F020E51
:105A400002EC38F0020E02EC38F0240E7717060153
:105A50005E6B010EF7EC39F05E6B2E0EF7EC39F051
:105A600005019751030A13E174510A0B10E177679E
:105A700001D0010C7751040A01E1020C7751240A8C
:105A800001E1020C7751200A01E1030C000C000C2B
:105A900094909492949494964E51020A03E18B80D0
:105AA0008B82010CFF0E0301FA5D0F0EFB5901E31F
:105AB000000C05014E0512E04E51060A0FE04E5152
:105AC000090A0CE04E510A0A09E04E51070A06E0A5
:105AD0004E51040A03E04E51150A03E18B808B827C
:105AE000010C6151B90A0FE04E510C0A0CE04E5105
:105AF0000D0A09E04E51120A06E04E510F0A03E06A
:105B00004E51160A03E18B908B82010C050E00EEBC
:105B100004F0EF6204D08EEC40F0626B000C010EDA
:105B200000EE04F0EF6203D08B908B92010C060E16
:105B300000EE04F0EF6203D08B908B82010C0C0E10
:105B400000EE04F0EF6203D08B808B82010C060E16
:105B50000601426F120E406F000E416BB3EC3DF038
:105B6000060EE8CF04F08B908B82010C0301C95123
:105B7000D8A41200C451D8A41200CA51D8A412004B
:105B800005016151B20AD8A412006051110AD8A4CB
:105B900012006251D8A412008151050AD8A4120043
:105BA0004F51D8A412008251D8A412000301AC5165
:105BB00004E0AC51040AD8A41200AF5104E0AF5184
:105BC000030AD8A41200B251D8A41200B451D8A428
:105BD0001200B80504E0B851030AD8A412008C865C
:105BE0008B988B9A0501736BB1EC30F084EC40F02C
:105BF00082EC35F0CD90F180F08CF08EF182F18C5A
:105C0000F19881A602D0F19601D0F186F288F08851
:105C1000F08AF286A76BD16A0300F296F298BAEC8A
:105C200031F0010ED16EB30E0501616F0A0E030152
:105C3000C96FF6EC3CF002C6FAF303C6FBF31200A0
:105C4000FF0E0301FA5D0F0EFB5902E394EF3FF0E4
:105C5000010E00EE02F0EF620BD005014F6708D095
:105C60000A0E0601406F020E4AEC40F077EC40F05D
:105C7000360E0301FA5D070EFB592CE205014F6752
:105C800029D0010E0601406F060E4AEC40F0320E9C
:105C90000301C56F0601406BF00E416F000E426BB1
:105CA000436B7FEC3DF004000301C5670BD0320E5F
:105CB000C56F8CB602D08C8605D0060109EC19F0B0
:105CC0007FEC3DF092EC3EF047EC2FF0050162676F
:105CD000EAD78C86060109EC19F07FEC3DF05A0EEC
:105CE0000301C96FBB670BD005018451220AD8A4F8
:105CF000C0EC3FF08469330EA86F380E6F6FB80E9A
:105D00000501616FF098B80CF36AF46AF76705D083
:105D1000F86703D0F96701D0000CF72905E1F829ED
:105D200003E1F92901E1000CF7B3F380F7B7F3823F
:105D3000F7BBF384F7BFF386F8B3F388F8B7F38AB9
:105D4000F8BBF38CF8BFF38EF9B3F480F9B7F482A3
:105D5000F9BBF484F9BFF486F304F41001E1010CFB
:105D6000F350020AF41001E1020CF350040AF4109B
:105D700001E1030CF350080AF41001E1040CF350A4
:105D8000100AF41001E1050CF350200AF41001E1AF
:105D9000060CF350400AF41001E1070CF350800A9E
:105DA000F41001E1080CF404F31001E1090CF450C3
:105DB000020AF31001E10A0CF450040AF31001E1A5
:105DC0000B0CF450080AF31001E10C0C0D0CF098C8
:105DD0000501A76B010EAC6F8C8A8C8C8C8E020E29
:105DE00006015E6F000E5F6B0EEC40F08C9E8C988F
:105DF0005FEC40F0090E0501006F0F0E016F020EFF
:105E00000601416FF00E99EC3DF05FEC40F0090E99
:105E10000501006F070E016F020E0601416FF00EC3
:105E200099EC3DF0020E0501006F990E016F026FB3
:105E3000036F046F056F066FA10E076F080E060152
:105E4000416FF00E99EC3DF00A0E0501006F016BF9
:105E5000026B036B046B050E0601416FF00E99ECAB
:105E60003DF00C0E0501006F016B026B030E060185
:105E7000416FF00E99EC3DF00A0E0501006F016BC9
:105E8000026B030E0601416FF00E99EF3DF04ED00C
:105E90004F51130A01E102D07D0506E1010E060112
:105EA000406F020E4AEF40F06151C00A04E06151B8
:105EB000C10AD8A41200010E0601406F0A0E4AEF73
:105EC00040F048EC2DF0000902E1DAEF3FF070EC11
:105ED00040F0BCEC26F0020E626F4E51020A0EE05A
:105EE0004E510A0A0BE04E510D0A08E04E51150AB8
:105EF00005E095510301C16101D08B960301C151A9
:105F0000D8A41200030E0501626F3BEC39F00301C7
:105F1000C16708D005019807986702D0DAEF3FF013
:105F2000BCEC26F0020E0501626F020C0501625105
:105F3000AFE0010AC6E0030AD0E0010AE6E08EEC19
:105F400040F0626B1200F36AF46AF76705D0F867F5
:105F500003D0F96701D01200F72905E1F829D8B478
:105F6000F929D8B41200F751030B030AD8B4F3800F
:105F7000F7510C0B0C0AD8B4F382F751300B300AEE
:105F8000D8B4F384F751C00BC00AD8B4F386F851E3
:105F9000030B030AD8B4F388F8510C0B0C0AD8B4DD
:105FA000F38AF851300B300AD8B4F38CF851C00B97
:105FB000C00AD8B4F38EF951030B030AD8B4F480A5
:105FC000F9510C0B0C0AD8B4F482F951300B300A99
:105FD000D8B4F484F951C00BC00AD8B4F486F45094
:105FE000F310D8B412000501992B130E9965130C08
:105FF000A76BAC6B540E85EF3FF0190E06015E6F78
:10600000000E5F6B0EEC40F0740E0301FA5D090E9A
:10601000FB5903E3280EC36F280CF90EFA5D080E36
:10602000FB5903E3280EC36F280CA90EFA5D080E76
:10603000FB592D0E02E3C36F2D0CFA5D080EFB59C0
:1060400003E32D0EC36F2D0CDB0EFA5D070EFB591B
:1060500003E3300EC36F300C640EFA5D070EFB597C
:1060600003E3320EC36F320C0B0EFA5D070EFB59C1
:1060700003E3320EC36F320CE70EFA5D060EFB59D6
:1060800003E3350EC36F350C980EFA5D060EFB590F
:1060900003E3370EC36F370C750EFA5D060EFB591E
:1060A00003E3390EC36F390C3C0EC36F3C0C060181
:1060B000036B046B056B066B500E076F080E086FC1
:1060C000096B0A6B880E0B6F040E0C6F0D6B0E6B59
:1060D000240E0F6F020E106F116B126B030E136FF5
:1060E000010E146F156B166B03690F0E046F056BB1
:1060F000066BE16A000E0311406FF00E0411416F50
:10610000000E0511426F000E0611436F7FEC3DF04B
:10611000640E5E6F000E5F6B0EEC40F0E150040DFC
:10612000070EF324E96EEA6A060EEA22EE50035FD8
:10613000EE50045BEE50055BED50065BE12A030E6A
:10614000E164D8D7000E406B416B426B436B7FEC30
:106150003DF0640E5E6F000E5F6B0EEC40F08C86BF
:1061600012008C8A8C8C8C8E020E06015E6F000EE3
:106170005F6B0EEC40F08C9E8C985FEC40F0090E4B
:106180000501006F0F0E016F020E0601416FF00E48
:1061900099EC3DF05FEC40F0090E0501006F070E31
:1061A000016F020E0601416FF00E99EC3DF0020EF8
:1061B0000501006FAA0E016F026F036F046F056F78
:1061C000066F070E0601416FF00E99EC3DF0080EC8
:1061D0000501006F180E016F020E0601416FF00EEF
:1061E00099EC3DF00C0E0501006F016B026B030E84
:1061F0000601416FF00E99EC3DF00A0E0501006FAB
:10620000016B026B030E0601416FF00E99EC3DF03D
:10621000F0981200E8CF6BF6F36A440EF324E96EAF
:10622000EA6A050EEA2206016F0EF324E16EE26AC5
:10623000060EE222EFCFE7FFF32A050EF364EDD757
:106240006F0E756F060E766FA5EC28F06C6F6F0EF3
:10625000756F060E766F0BEC26F06D6F676B686BD3
:1062600066A303D06DC667F6686B696B6A6B66A13F
:1062700003D06CC669F66A6B695167196B196E6F4A
:106280006E0503E1800EF46E01D0F46AF4CF77F668
:106290006F0E756F060E766F0FEC32F0D96A6F0EC7
:1062A000D924E96EEA6A060EEA22440ED924E16E88
:1062B000E26A050EE222EFCFE7FFD92AD964EFD7D1
:1062C00006016D5112000601036B046B056B066B32
:1062D000500E076F080E086F096B0A6B880E0B6F64
:1062E000040E0C6F0D6B0E6B240E0F6F020E106FF1
:1062F000116B126B030E136F010E146F156B166B7F
:1063000003690F0E046F000E056B066BE16A03C68E
:1063100040F604C641F605C642F606C643F67FECD3
:106320003DF0640E5E6F000E5F6B0EEC40F0E150CE
:10633000040D070EF324E96EEA6A060EEA22EE5017
:10634000035FEE50045BEE50055BED50065BE12A07
:10635000030EE164DCD7000E406B416B426B436B74
:106360007FEC3DF0640E5E6F000E5F6B0EEC40F054
:106370008C8612000F01256B246B236B9290899001
:106380009282929489949296899692988998929AF8
:10639000899A93809382938493869388938A939C1B
:1063A0008A9C939E8A9E94908B9094928B929494C4
:1063B0008B9494968B9694988B98949A8B9A948CB1
:1063C000948E95908C9095928C9295948C949596B1
:1063D0008C8695988C98959A8C9A959C8C9C959E79
:1063E0008C9E96908D90968296948D9496968D869E
:1063F00096988D88969A8D8A968C968E97928E9284
:10640000978497869788978A978C979E8E9E989068
:106410008F909882988498968F9698881200D96A5F
:10642000D9507525E96E000E7621EA6EEF507E6F29
:10643000780ED924E96EEA6A060EEA227EA102D01D
:10644000800E01D0000EEF6ED92A050ED964E8D770
:10645000E16AE1507525E96E000E7621EA6ED8906A
:10646000EF32E12A050EE164F4D775C6E9FF76C67E
:10647000EAFF7751EF127529E96E000E7621EA6E78
:106480007851EF12020E7525E96E000E7621EA6E44
:106490007951EF12030E7525E96E000E7621EA6E32
:1064A0007A51EF12040E7525E96E000E7621EA6E20
:1064B0007B51EF12050E7525E96E000E7621EA6E0E
:1064C0007C51EF121200F2A44AD0F294D90ED66E8B
:1064D000D76A0301BF2B0501704B712B0301C0511B
:1064E000D8A4C007C151D8A4C107010EBFA10BD0C9
:1064F000BD6FC251D8A4C207C551D8A4C507C351A6
:106500000CE0C3070AD0BE6FC451D8A4C407C6515B
:10651000D8A4C607C751D8A4C707BF51140A1FE1A2
:10652000BF6BC951D8A4C907C851D8A4C807CA515C
:10653000D8A4CA07CB51D8A4CB07CC51D8A4CC0738
:10654000CD51D8A4CD07CF51CE1103E0CE07D8A0AE
:10655000CF07D151D01103E0D007D8A0D10791C601
:10656000E0FF90C6E8FF8FC6D8FF1000740E03014D
:10657000FA5D090EFB5903E3280EC36F280CF90ED0
:10658000FA5D080EFB5903E3280EC36F280CA90E11
:10659000FA5D080EFB592D0E02E3C36F2D0CFA5D58
:1065A000080EFB5903E32D0EC36F2D0CDB0EFA5DB5
:1065B000070EFB5903E3300EC36F300C640EFA5D17
:1065C000070EFB5903E3320EC36F320C0B0EFA5D5C
:1065D000070EFB5903E3320EC36F320CE70EFA5D70
:1065E000060EFB5903E3350EC36F350C980EFA5DAA
:1065F000060EFB5903E3370EC36F370C750EFA5DB9
:10660000060EFB5903E3390EC36F390C3C0EC36F02
:106610003C0C05017B6746D04F6B44D01200030150
:10662000C86715D0BB670FD005018451220AD8A4D2
:10663000C0EC3FF08469330EA86F380E6F6F090EFF
:10664000816F94EC3FF0270E05014F6F270CC56753
:106650001200320EC56F8BB816D08B8805016151C0
:10666000B40AD8B412000601406BF00E416F000E60
:10667000426B436B7FEF3DF00301C5671200320EA2
:10668000C56F8BA8EAD78B9805016151B40AD8A4CD
:106690008C8612000301BA05D8A4120005017B6B99
:1066A0004F6B12004F51BAE0130AB9E0340AE4E02C
:1066B000470AF0E04F6B1200E8CFD9FFD90403E19D
:1066C000BF0E05014A17D950060A03E1EF0E050176
:1066D0004A17D9500C0A03E10501F70E4B17D950A0
:1066E000020A03E1F70E05014A17D950070A03E130
:1066F0007F0E05014A17D9500B0A03E10501FB0E75
:106700004B17D950030A03E1FB0E05014A17D95074
:10671000080A03E1DF0E05014A17D9500A0A03E10E
:106720000501FD0E4B17D950050A03E1FD0E0501C9
:106730004A17D950090A03E10501FE0E4B17D9503B
:10674000040A04E1FE0E05014A17FF0E4AC502F6CF
:106750004BC503F64CC504F64DC505F612009890DE
:106760008F905FEC40F00050DD0A04E1010E030160
:10677000BB6F010C0050AA0A0DE185AA06D085BCAA
:1067800010D0010E0301BB6F0DD085AC0AD0030100
:10679000BB6B08D085AA03D085ACF9D702D085BCE5
:1067A000F0D700F00301BC51BB1927E0050160518F
:1067B000110A23E10301BB0520E1010E00EE02F006
:1067C000EF620BD0000EE8CF02F00601426B100E14
:1067D000406F000E416BB3EC3DF0010E00EE03F094
:1067E000EF620BD0000EE8CF03F00601426B110EF2
:1067F000406F000E416BB3EC3DF0BBC3BCF398801F
:10680000120005017B0506E0FF0E0301FA5D0F0E85
:10681000FB5902E394EF3FF0360EFA5D070EFB5989
:106820002DE2010E0601406F060E4AEC40F0320EDA
:106830000301C56F0601406BF00E416F000E426B05
:10684000436B7FEC3DF004000301C5670FD0320EAF
:10685000C56F8CB602D08C8609D00601406BF00E55
:10686000416F000E426B436B7FEC3DF092EC3EF0CB
:1068700047EC2FF005016267E6D78C860601406B76
:10688000F00E416F000E426B436B7FEC3DF05A0EF1
:106890000301C96F270E05016F6FB70E616FF09886
:1068A000B70C5B0E06015E6F110EF7EC39F03F0E70
:1068B0005E6F120EF7EC39F0010E5E6F190EF7ECF9
:1068C00039F0050179670CD0AA0E06015E6F360E0D
:1068D000F7EC39F0020E5E6F370EF7EC39F00BD0A3
:1068E000AA0E06015E6F360EF7EC39F0030E5E6FEE
:1068F000370EF7EC39F0010E5E6F140EF7EC39F03D
:10690000080E5E6F1A0EF7EC39F0810E5E6F1E0EE8
:10691000F7EC39F0060E5E6F210EF7EC39F0070E3A
:106920005E6F0F0EF7EC39F0030E5E6F220EF7EC80
